:100000000C9421030C943E030C9459030C943E036E
:100010000C943E030C943E030C9427280C943E034E
:100020000C943E030C943E030C943E030C943E034C
:100030000C943E030C943E030C9403280C943E0352
:100040000C943E030C943E030C943E030C943E032C
:100050000C943E030C943E030C943E030C943E031C
:100060000C943E030C943E03FD377A585A0000046A
:10007000E6D6B4460200210116000000742FE5A365
:10008000E00261011C5D003D8889C65436C3174FEC
:10009000E4E20E164D853C533C3A18756871F4C77E
:1000A00044ABE53413BAED6CC98780653A10650A34
:1000B0007DAC3202D439F09C6CFDE264E7F136C8C5
:1000C000B17FCF0013D128BBF1FE7430170B3F9CDA
:1000D0009E1819E543C1ECA326B34C0C3E23715086
:1000E000F730024BEA629848923944D89B69ACA534
:1000F000765F541C2DCA247D64AF4BB05F509000D6
:100100008A5851F23215DDBC408B67C573B00B8B3A
:1001100048568C1A3F1E9FB772C246B5648B7B8AC5
:1001200080468020D2B60C68C6BADD942046564E72
:10013000B22EEFDACB8C58CA584E2AFBF2C005A675
:1001400076AF1B2418970548D13C7F09678D77400F
:1001500007ADE16678D11B1C63AD7E7452F4248533
:10016000518121447D39EE70E6979D4F8DBD7C8491
:10017000A0B8599395A38835FB49FFA279AC737752
:10018000FA7A2588DC6A6F42A6EEBF47DBDE0F1ADB
:100190009607FBD4C194457A4F461F104BAA37D51A
:1001A00016B500009BCF5FDE325114A30001B802E8
:1001B000E2040000CA377334B1C467FB02000000D8
:1001C0000004595A01000100990387146C140000BF
:1001D00002000200950387146C1400000300010064
:1001E0009A0387146C140000040002007F03871434
:1001F0006C145F07050001009B0387146C1400005A
:1002000006000200810387146C140000070002003E
:10021000970387146C140000080001009C038714E6
:100220006C14000009000200830387146C143A0761
:100230000A000200850387146C143A070B000200C1
:10024000870387146C143A070C0002008903871493
:100250006C143A070D0002008B0387146C143A07E4
:100260000E0002008D0387146C143A070F00020081
:100270008F0387146C143A0710000200910387144F
:100280006C143A0711000200930387146C143A07A8
:10029000120002009D0387146C140000130002007A
:1002A0009F0387146C14000014000100A10387143D
:1002B0006C140000150000000000C006811600004C
:1002C00014001A000800150017001C0018000C008C
:1002D0001200130004001600070009000A000B00BA
:1002E0000D000E000F0028001D001B000600190065
:1002F000050011001000360037003800E100E20070
:10030000215222522A002C002C00E400010022522B
:1003100001000100010001000100010001000100D5
:1003200001002A001E001F002000210022002300DF
:100330002400250026002700010001000100010023
:100340000100010001000100520001000100010054
:1003500001000100010001000100500051004F00A8
:100360002352010001000100010001005F00600054
:1003700061005600010001000100010001000100C0
:100380005C005D005E0057000100010001000100FB
:100390000100010059005A005B00580001000100F3
:1003A00001000100010001006200620063005800CA
:1003B0000100010001000100010001000100010035
:1003C0000100017C010001000100010001000100A9
:1003D0000100010001000100010001000100010015
:1003E0000100010001000100010001000100010005
:1003F00001000100010001000100010001000100F5
:1004000005010902A10185020901A10005091901DF
:10041000290815002501950875018102050109309B
:1004200009311581257F95027508810609381581E6
:10043000257F950175088106050C0A38021581256E
:100440007F950175088106C0C005010980A101855D
:100450000319012AB700150126B70095017510810F
:1004600000C0050C0901A101850419012AA002158B
:100470000126A002950175108100C00660FF096188
:10048000A1010962150026FF009520750881020967
:1004900063150026FF00952075089102C00501092B
:1004A00006A101050719E029E71500250195087542
:1004B0000181029501750881030507190029FF15BF
:1004C0000026FF0095067508810005081901290519
:1004D000950575019102950175039103C01C037682
:1004E00000690061006C003A006600360034006369
:1004F000003200620033006300000010034C00650E
:100500000073006F0076006F007A00000012035342
:1005100000710075006100730068004B004200002C
:10052000000403090409025B00030100A0FA0904A6
:100530000000010301010009210101000122400026
:1005400007058103080001090401000203000000FF
:10055000092101010001222200070584030800018E
:10056000070504030800010904020001030000005C
:10057000092101010001227B000705830308000116
:1005800012011001000000085153534C00010102F8
:100590000301000000000000000000000000000057
:1005A000000000000000000000000000000000004B
:1005B0000000000000007E0F00D4FFFFFFC7000016
:1005C000007800000000000000002A2B2800000036
:1005D00000000000000000000000000000290000F2
:1005E00000002C1E3420212224342627252E362DCF
:1005F0003738271E1F202122232425263333362E69
:1006000037381F0405060708090A0B0C0D0E0F10DA
:100610001112131415161718191A1B1C1D2F31301F
:10062000232D350405060708090A0B0C0D0E0F10C3
:100630001112131415161718191A1B1C1D2F3130FF
:10064000354C11241FBECFEFD8E0DEBFCDBF25E073
:10065000A8E6B1E001C01D92A23EB207E1F711E0A9
:10066000A0E0B1E0E4E5F2E602C005900D92A83604
:10067000B107D9F70E944E280C94DE300C9400008C
:10068000A82FB92F80E090E041E050EA609530E07B
:1006900009C02D9182279795879510F0842795277B
:1006A000305EC8F36F5FA8F30895EADF8D939D93E2
:1006B0000895CF93CFB7CF93DF93C3954B9BE9F7C3
:1006C0004B9B10C04B9B0EC04B9B0CC04B9B0AC05E
:1006D0004B9B08C04B9B06C0C091BC05C395C09303
:1006E000BC058EC06F93C091BB05DD27C054DA4FA7
:1006F0002F9365E54B9B03C02F916F91E1CF0F9333
:100700001F934F9320E040E15F9309B10C7003FB0E
:1007100027F93F9350E03BE039C01C7040642F77CD
:10072000012F5F5F1EC0406819B11C702F775250B7
:100730001FC0406409B12F770C70D1F15F5F00C01A
:1007400023C0406219B12F771C7091F15F5F00C028
:1007500025C00C701027515012F45D5F000011503D
:1007600027952C3F19B1C8F61C7001270150279519
:100770002C3FC8F64227499309B10C7010274F73DC
:10078000115027952C3FA8F64695469519B11C7037
:1007900079F00127015027952C3F98F66B5A60F3AA
:1007A000315009B1B0F600C012E01CBB00271CC0DC
:1007B0003B503195C31BD04012E01CBB0881033C69
:1007C00021F10B3411F12091B9051981110F121388
:1007D000EDCF4A81441F093679F10D3211F0013E07
:1007E00029F74F7009F0042F0093BF053F915F91E7
:1007F0004F911F910F912F916F91CCB3C1FD5DCFA0
:10080000DF91CF91CFBFCF9118952091BF052223C3
:1008100069F31091BD05112309F049C034300AF481
:1008200048C03093BD052093BA051091BB053BE04D
:10083000311B3093BB053DC00091BD050130BCF5B7
:100840000AE54F7049F43091180134FD33C000932C
:100850001801C6E9D5E032C0433059F0443091F078
:100860003091A10534FD26C00093A105C2EAD5E070
:1008700025C03091D60534FD1DC00093D605C7EDC7
:10088000D5E01CC03091AD0534FD14C00093AD051A
:10089000CEEAD5E013C0052710E000C000000BB978
:1008A0001AC0052710E0221F1DC010E021C04AE534
:1008B00002C032ED432FC4E1D0E032E01AB11C6037
:1008C0005B9A0BB11AB95CE020E865E320FF0527CD
:1008D0000BB9279517951C3FF0F66695B8F7B1F759
:1008E00020FF05270BB9279517951C3FD0F62795B4
:1008F000179517FF052700001C3F0BB9B0F629918B
:100900003A9519F7037F1091BE05110FC651D040DB
:100910000BB911F01093B90512E01CBB08601AB1B5
:10092000137F402F437F54E05A95F1F70BB91AB962
:100930004BB95CCF482F2091940590914B0559E01D
:10094000291302C080E0089530E0529FF001539FC8
:10095000F00D1124E45BFA4F8181681306C0808199
:10096000481303C085818111EECF2F5F3F4F277061
:10097000E7CFFC018381833089F130F48130F1F0DD
:10098000823021F180E00895813209F44BC0823237
:10099000C9F7248135812130310509F461C0211561
:1009A000310509F455C02230310561F780E094E04B
:1009B00090934A05809349058BE7089580E895E078
:1009C00090934A058093490582E1089585E295E078
:1009D00090934A05809349058BE508958281813083
:1009E000B1F0882361F08230A9F0833059F68DEDA3
:1009F00094E090934A05809349058CE1089581E243
:100A000095E090934A058093490584E008958DE030
:100A100095E0D6CF8BEF94E090934A0580934905FB
:100A200080E108958281813081F0882331F0823025
:100A300009F0A8CF80E795E002C087E395E09093A6
:100A40004A058093490589E0089580E595E0F7CF50
:100A50008DE994E090934A058093490580E40895D8
:100A60002BE734E030934A0520934905089580919F
:100A70004405089588E198E00FB6F894A89580930E
:100A800060000FBE90936000A895F894D8E0CEEF78
:100A900028E3299320E0299314BEFFCF08959C01F9
:100AA0004FB7F8948091930490919404A091950489
:100AB000B09196044FBF821B930B08952FB7F89403
:100AC00060919304709194048091950490919604A0
:100AD0002FBF08952FB7F8948091930490919404B8
:100AE000A0919504B09196042FBF0895809192042F
:100AF000882321F11092910488E190E020E40FB660
:100B0000F894A895809360000FBE2093600083B78F
:100B1000817F846083BF83B7816083BF7894889529
:100B200083B78E7F83BF0FB6F894A895809160003D
:100B3000886180936000109260000FBE08959C0150
:100B4000FC0132969FEF80E04191461751F09F3FA4
:100B500019F4411101C0982F8F5F8630A9F79F3F8C
:100B600009F40895290F311D97FD3A95F901628323
:100B70000895A3E0B0E0EFEBF5E00C94273020916E
:100B80008F043091900428173907A1F090939004B6
:100B900080938F04E0918D04F0918E04309751F092
:100BA00024E029839B838A830680F781E02DCE0190
:100BB000019609952396E2E00C944330A3E0B0E05F
:100BC000E4EEF5E00C94273020918B0430918C04F6
:100BD00028173907A1F090938C0480938B04E0913F
:100BE0008D04F0918E04309751F023E029839B838C
:100BF0008A830680F781E02DCE0101960995239620
:100C0000E2E00C944330E0918D04F0918E04309733
:100C100029F00190F081E02D0995089580E0089574
:100C2000CF93DF93EC0140917B0450917C04609161
:100C30007D0470917E042FB7F89480919304909175
:100C40009404A0919504B09196042FBF841B950B3A
:100C5000A60BB70B843F9140A105B10518F5809113
:100C60007B0490917C04A0917D04B0917E048093DC
:100C7000770490937804A0937904B0937A0484EF76
:100C800091E0A0E0B0E08093730490937404A0938B
:100C90007504B0937604D0938304C0938204DF91EB
:100CA000CF9108950E945E05609377047093780455
:100CB0008093790490937A0482E390E0A0E0B0E01E
:100CC000E2CFFC018481862351F492819923B9F00B
:100CD0006923808583FF05C081E061110FC080E03A
:100CE0000895892F8F7092959F70982B862F8F7003
:100CF00062956F70682B81E09613F1CF089581E0C3
:100D0000FDCFDC0160916F0480917004962F8913F0
:100D100001C00895292F30E0F901EE0FFF1FE959B6
:100D2000FB4F408151814A175B07A1F487E08A9FFE
:100D3000A0018B9F500D112446555C4F81E0FA01B4
:100D400084839613E6CF2F5F3F4F23703327209382
:100D50006F0408952F5F3F4F922F9370D8CF10925A
:100D6000A8031092A703EAEAF3E08581811102C08B
:100D700014821682379683E0EE3FF807B1F70895A4
:100D8000B0E0A0E0E6ECF6E00C941F308FEF9FEFB0
:100D90004430510508F469C040915C0341FB882749
:100DA00080F990E0880F991F42FB002700F910E0BE
:100DB000000F111F000F111F802B912B40FBCC2423
:100DC000C0F8D12C8C299D2943FB222720F9C22F62
:100DD000E0E0DE2F53E0CC0FDD1F5A95E1F78C2BBE
:100DE0009D2B44FBAA27A0F9B0E0E4E0AA0FBB1FAB
:100DF000EA95E1F78A2B9B2B45FBEE27E0F9F0E023
:100E0000A5E0EE0FFF1FAA95E1F78E2B9F2B46FB67
:100E1000222720F930E0B6E0220F331FBA95E1F720
:100E2000822B932B47FB222720F930E03695322F77
:100E3000222737952795822B932B20915D03322F04
:100E40003170F32EE82EF92A26952170B22EBB0CB4
:100E5000A82EBF28C501BB0CAA0BBB0BFB018083CE
:100E60009183A283B38390E080E0CDB7DEB7EAE060
:100E70000C943B30EFE7F3E0848195812AE030E089
:100E8000B9010E94E22F60931001868180930F01C7
:100E9000828580930E01848580930D0186859785D8
:100EA000B9010E94E22F60930C01808980930B01AD
:100EB000828980930A018489809309010895809131
:100EC0007F03909180039093120180931101089504
:100ED000E9EEF1E090E080E064E477E24BE657E28F
:100EE0002AEB36E2778366835187408733872287F0
:100EF0009587848701963E968830910599F70895E5
:100F000081152CE7920741F42091150130911601CB
:100F1000232B11F490E080E008950E946A059C0163
:100F20009091D1018091D201982B21F03093CE0184
:100F30002093CD019091D3018091D401982B21F081
:100F40003093CC012093CB01E0918D04F0918E047D
:100F5000309749F082E08093CF010480F581E02D45
:100F60008FEC91E0099508958091CA0180FF0CC033
:100F700060910A0170E075956795759567956115A3
:100F8000710549F1862F089581FF06C060910A011D
:100F900070E075956795F3CF60910A0182FD0BC0F3
:100FA0009091C9019923A1F06091090180910A01F2
:100FB000961738F0682F70E06038710500F38FE7FE
:100FC0000895899FC001112470E00E94F62FF4CF8C
:100FD00061E070E0D7CF81E008958091CA0160910F
:100FE00087037091880380FF16C020910E01269F11
:100FF000C001279F900D1124BC01769567957695C9
:1010000067956038710508F043C06115710509F4F2
:1010100041C0862F089581FF0BC020910E01269FAD
:10102000C001279F900D1124BC0176956795E9CFEB
:1010300082FF09C080910E019B01829FB001839FB6
:10104000700D1124DECF2091C8012223D1F290919E
:101050000D0180910E01482F50E0291748F0CB0177
:10106000849FB001859F700D949F700D1124C9CF8E
:10107000289F90011124269FA001279F500D369F85
:10108000500D1124692F70E0CA010E94E22FB9CFE0
:101090008FE7089581E0089580E00895F894E82F9F
:1010A000E295EF70F0E031A1282F2F7081E090E001
:1010B00001C0880F2A95EAF7982F9095932391A362
:1010C00092A1892B82A37894089590915C0392FF5A
:1010D00006C0282F28712830F9F4877F846093FF99
:1010E00006C0282F28712831F1F4877E8461209171
:1010F0005D0320FF06C0382F38713830D9F4877F60
:10110000816021FF06C0282F28712831D1F4877E05
:10111000816194FD877E0895282F24712430F9F68B
:101120008B7F8860DCCF282F2471243101F78B7EE0
:101130008861DDCF382F3171313019F78E7F8860AB
:10114000E0CF282F2171213121F78E7E8861E1CFF8
:1011500082389105B9F1B0F48133910509F47DC06D
:1011600048F48932910509F46DC08A32910509F479
:101170007BC008958533910509F45FC089339105DB
:1011800009F10895833E9105D9F138F4803E910527
:1011900029F1823E910579F10895863E9105D9F1B4
:1011A000873E910509F43EC0843E910541F52091AA
:1011B0005D0321FF24C080915C0384FD19C087EE8C
:1011C00090E0089520915C03237009F05AC02091AB
:1011D0005D0323FF14C089E290E0089520915C0331
:1011E00020FD38C030915D0330FF09C024FF43C0AB
:1011F00090E080E0089520915C0322FDF7CF0895F0
:1012000020915C0322FD3AC030915D0330FD39C06E
:1012100024FFF5CFEDCF20915C0323FFF0CF24FD19
:10122000E7CFCDCF20915C0323FD2EC030915D032D
:1012300031FFEECF84EE90E0089520915C0325FF0E
:10124000DECFC9CF20915C0325FD21C020915D0335
:1012500023FFD5CF89E390E0D2CF20915C0326FF16
:10126000CECF8AE290E0089520915C0326FFC7CF9D
:1012700081E390E0089583EE90E0089582EE90E09F
:10128000089580EE90E0089586EE90E0089585E35D
:1012900090E008951F93CF93DF930E94A808EC017C
:1012A000C11580E5D807F0F5C11580E4D80708F02E
:1012B0009CC0C03ED10520F5CD3CD10508F082C0D0
:1012C000C83AD10578F4C53AD10508F073C0C130E9
:1012D000D10519F1209709F1C430D105F0F4D0E01F
:1012E000C0E01BC0C33CD105D0F7C85AD0E0CC0F3A
:1012F000DD1FCC5DDE4F0990D881C02DD4640DC0B8
:10130000C11580E2D80708F0D1C0C11581E0D80727
:1013100008F05AC0C83ED10510F7CE01DF91CF9139
:101320001F910895C03682E5D80718F5C03482E5CC
:10133000D80708F06BC0C03282E5D80708F05FC05C
:10134000C11582E5D80708F497C02C2F269526955D
:1013500080E2289F900111248C2F8370C1E0D0E09F
:1013600002C0CC0FDD1F8A95E2F7C22BD32BDD68BC
:10137000D4CFC03A82E5D80760F4C03882E5D807F8
:1013800008F459C0CF71D0E0DC2FCC27C46FD06AED
:10139000C4CFC03C82E5D80708F462C0C03E82E5F5
:1013A000D80708F09CCFDC2FCC27CC27DF71C06F8B
:1013B000D06AB3CFC55AD0E0CF5DDE4FC881D0E050
:1013C000D064ABCFD065A9CF8D2F0E946508182FB0
:1013D000CE0199270E94A808C12FD0E0DC2FCC278E
:1013E000CC27DF71C82BD92B98CFCE0199270E942B
:1013F000A808CC27DF70C82BD92BD06A8ECFCF712D
:10140000D0E0DC2FCC27C16FD06A87CF2C2F269558
:101410002695277080E2289F900111248C2F8370DD
:10142000C1E0D0E002C0CC0FDD1F8A95E2F7C22BED
:10143000D32BDC6872CF2C2F26952695277080E25F
:10144000289F900111248C2F8370C1E0D0E002C04E
:10145000CC0FDD1F8A95E2F7C22BD32BDA685DCF64
:101460008C2F8F710E946508C82FD0E0DC2FCC270D
:10147000CC27DF71D06251CF8C2F8F710E9465080D
:1014800055E0D695C7955A95E1F7CF70D0E0DC2F9F
:10149000CC27282F30E084FF05C044E0220F331F03
:1014A0004A95E1F7C22BD32BD06937CF8D2F8F719F
:1014B0000E946508182FCE0199270E94A808C12F05
:1014C000D0E0DC2FCC27CC27DF71C82BD92BD2CF93
:1014D00080919501882331F010929501109294012A
:1014E000109293010895CF93C82F80915D0382FFDE
:1014F0000CC0809195018C1741F00E946A05909371
:10150000940180939301C0939501CF910895909198
:101510009501292F282361F08095892380939501D7
:10152000882339F00E946A05909394018093930177
:10153000089590E080E0F8CF8095909195059823EC
:10154000909395050895809590915E0398239093CC
:101550005E03089590915E03892B80935E03089546
:101560001092920110929101109290010895809131
:10157000810390918203892B89F00E946A05209152
:10158000930130919401AC01421B530B81E02091F7
:101590008103309182034217530708F480E0817081
:1015A000089580915E0390919505892B80936A013F
:1015B00080919501882309F18091810390918203A4
:1015C000892B29F00E94B70A81110E94680A809134
:1015D0006A0190919501892B80936A0120E08CE645
:1015E00091E0FC013191CF0131112F5FF1E08237A1
:1015F0009F07B9F721110E94680A80917F048095A6
:1016000090916A01892390918004892B80936A01CB
:10161000E0918D04F0918E04309731F00280F381D7
:10162000E02D8AE691E009950895CF93DF93EC01D0
:10163000EA85FB85309719F06C857D8509958B814E
:101640000E949C0A8C810E94A30A0E94D10A86E013
:10165000FE0111928A95E9F7DF91CF910895CF931A
:10166000DF93EC018D8181FD15C082608D838091B7
:1016700095059B81892B809395058C810E94AA0AF0
:101680000E94D10AE885F985309721F06C857D8527
:10169000CE01099510928A04109289048D8180FDF3
:1016A00003C0CE010E94150BDF91CF910895809168
:1016B0001301877F8093130182E00E949C0A80912E
:1016C000130184FF06C08F7E8093130182E00E9485
:1016D000AA0A8091130185FF06C08F7D80931301B4
:1016E00080E20E94AA0A0E94D10A089590918F0177
:1016F000292F282321F08095892380938F01089535
:10170000ECE6F1E09191891303C0DF0111971C927F
:1017100091E0E237F907B1F708958091940590912F
:101720004B05981301C008958F5F8770FACF292F5A
:10173000943078F58A3068F590E03AE0239F800D88
:10174000911D1124682F677023E0969587952A953F
:10175000E1F7FC01EE0FFF1FE80FF91FE958FE4FFC
:1017600050E040E080E0219130E0062E02C0369546
:1017700027950A94E2F721703327042E01C0220F27
:101780000A94EAF7822B4F5F5F4F4330510559F7B8
:10179000089580E00895292F943098F58A3088F5CF
:1017A00090E03AE0239F800D911D1124282F27708F
:1017B00041E001C0440F2A95EAF723E0969587950A
:1017C0002A95E1F7FC01EE0FFF1FE80FF91FE9581A
:1017D000FE4F30E020E070E05191DF011197CB0126
:1017E000022E02C0969587950A94E2F78170819542
:1017F0008527842385278C932F5F3F4F2330310526
:1018000059F708958093A301089592959F7096309B
:1018100091F058F4925F9F70923058F4803F19F025
:1018200030F4883E30F481E008959A5FF4CF843F2D
:10183000D1F380E00895883EB0F3813FD1F7F3CF34
:10184000882321F00E949C0A0E94D10A08958823CF
:1018500039F090919505982B909395050E94D10AA7
:101860000895882321F00E94A30A0E94D10A0895B6
:10187000882321F00E94AA0A0E94D10A08956623B3
:1018800009F45DC08D3C41F40E94ED078195809381
:10189000D2010E948D0708958E3C19F40E94ED0735
:1018A000F6CF8F3C31F40E94ED0781958093D101F2
:1018B000F0CF803D19F40E94ED07F8CF893D29F45F
:1018C0000E94B4078093D301E4CF8A3D21F40E94A3
:1018D000B4078195F7CF8B3D31F40E94B407819511
:1018E0008093D401D6CF8C3D19F40E94B407F8CF71
:1018F0009FE2980F983070F4815D990B21E030E001
:1019000001C0220F8A95EAF78091D001822B809343
:10191000D001BFCF8D3D31F48091CA0181608093A9
:10192000CA01B7CF8E3D21F48091CA018260F7CF02
:101930008F3D09F0AECF8091CA018460F0CF409115
:10194000D1018D3C59F48091D20187FF0DC01092D6
:10195000D20141110BC01092C80108C08E3C81F425
:101960008091D20118169CF3442381F08091D30119
:101970009091D401892B09F08CCF1092C90189CFA5
:101980008F3C49F447FFF0CF1092D1018091D201F2
:101990008111ECCFE0CF803D19F41416ACF3E4CF05
:1019A0009091D301893D29F41916F4F61092D301D0
:1019B000DBCF8A3D19F497FFD7CFF8CF9091D401B0
:1019C0008B3D29F497FFD0CF1092D401CDCF8C3D21
:1019D00019F41916CCF3C8CF9FE2980F983090F401
:1019E000815D990B21E030E0B90102C0660F771FDD
:1019F0008A95E2F7CB0180959091D001892380935D
:101A0000D001B2CF8D3D31F48091CA018E7F809399
:101A1000CA01AACF8E3D21F48091CA018D7FF7CFF4
:101A20008F3D09F0A1CF8091CA018B7FF0CF882331
:101A300081F19CEF980F913A28F40E94800B0E944C
:101A4000D10A089590E2980F983050F4877091E091
:101A500001C0990F8A95EAF7892F0E94A30AEFCF58
:101A60009BE5980F933028F490E080E00E94DE051B
:101A7000089598E5980F9B3128F490E080E00E944B
:101A8000B905089593E3980F933118F460E00E942C
:101A90003F0C0895FF920F931F93CF93DF93F82E7F
:101AA00000918404109185040115110509F449C0C1
:101AB000109283041092820410927F04109280048A
:101AC000D8011696CD91DC919E013A9521153F41A2
:101AD00008F4D07ED1E0C11101C0D0E0D801199640
:101AE000ED91FC911A97309731F01B966D917C9196
:101AF00080E00995D823DD2339F08CEF8C0F813AF3
:101B000030F58C2F0E94800BFF2099F0E091840427
:101B1000F0918504808584FD0CC080918104882328
:101B200041F0808191819C01215031092F333E4742
:101B3000A0F00E94D10A10928504109284041092A1
:101B40008104C801CDB7DEB7E5E00C9440300E94B7
:101B5000D10A8C2F0E94170DD7CF0E941006E9CF13
:101B6000CF93C82F8823A1F08CEF8C0F813A90F48B
:101B7000ECE6F1E08191C817E9F181E0E237F8077E
:101B8000C9F76C2F8AE691E00E949F050E94D10A56
:101B9000CF91089580E28C0F883048F4C77081E0BF
:101BA00001C0880FCA95EAF70E94AA0AEFCFEBE5B9
:101BB000EC0FE33040F4F0E0EF5DFE4F808190E009
:101BC0000E94DE05E5CFE8E5EC0FEB3150F4F0E0E4
:101BD000EE0FFF1FEC5DFE4F808191810E94B905E1
:101BE000D7CF83E38C0F833198F661E08C2F0E946E
:101BF0003F0CCECF8C2F0E94800B0E94D10AC1CF08
:101C00009C013A9521153F4150F5FC01EE27F170FA
:101C1000BC0166277270AC01442754709C012227D6
:101C2000387094FF0EC080E1EF2B09F480E0672B41
:101C300009F08062452B09F08064232B89F08068CD
:101C4000089581E0EF2B09F480E0672B09F08260B2
:101C5000452B09F08460232B19F08860089580E0FB
:101C60000895CF93DF93EC010E94170DCE010E94DF
:101C7000000E9E01205E31092830310510F0CD2B79
:101C800029F40E94310CDF91CF9108950E94200C1D
:101C9000FACFCF93DF93EC010E94000E9E01205EED
:101CA00031092830310510F0209741F40E94380C9A
:101CB0008C2F0E94B00DDF91CF9108950E94270CC8
:101CC000F7CF662329F02091950522602093950592
:101CD0009C0130522115304308F499270E94490E87
:101CE00008955F98882311F0289A089528980895F8
:101CF0000E94710E8093A40108959091A40121E0A7
:101D000030E0F90101C0EE0F8A95EAF7D90102C06F
:101D1000AA0FBB1F6A95E2F7EA2B01C0220F4A9572
:101D2000EAF7892F8E23E81305C0292B822F0E9402
:101D3000780E089520952923F9CF21E030E001C0E5
:101D4000220F8A95EAF720958091A40182230E94B0
:101D5000780E089590919201809589238093920145
:101D6000282F277069F4891759F090915D0392FF2D
:101D700007C08695869586950E949D0E0E94B00AA2
:101D8000089521E030E001C0220F8A95EAF78091A2
:101D9000A401822B0E94780E089590915D0392FF1A
:101DA00010C098E0899F90011124622B60939201EA
:101DB0000E94C10E0E946A05909391018093900148
:101DC00008950E94C10E0895019708F40895EFE95F
:101DD000FFE03197F1F700C00000F6CFB0E0A0E0DF
:101DE000E4EFFEE00C9421306C018B01E42E809135
:101DF000130182FF87C0C091A503D091A603CC1523
:101E0000DD0521F0C114D10409F07CC080911301DB
:101E10008B7F8093130181FD6EC08091A30390910D
:101E2000A403A801481B590B81E0209111013091B6
:101E300012014217530708F480E08170F82E809158
:101E40001301F0FA81F980931301FE0183E0F69506
:101E5000E7958A95E1F7EE71FF27E15AFC4F208163
:101E60003181AE014F70552781E090E002C0880FAC
:101E7000991F4A95E2F7FF2009F43FC0822B932B6C
:101E80009183808380915E0381FF08C0809113015C
:101E900080618093130182E00E94A30A80915E0317
:101EA00085FF08C08091130180628093130180E256
:101EB0000E94A30A6F2DCE010E94610EEE2031F028
:101EC00080919A0385FF02C086FF30C080919D03F8
:101ED00090919E030E94E40E8091A5039091A60329
:101EE0009C0130522115304308F499270E94310E8D
:101EF0000E94570B17C081E0A0CF80959095822358
:101F00009323BECFC601905281159043A0F4C60121
:101F100099270E94310E8091A5039091A6038C15FC
:101F20009D0531F31093A4030093A303CDB7DEB74F
:101F3000E8E00C943D30C601ECCF1F93CF93DF93C4
:101F4000182FC0919F03D091A003893321F0C09135
:101F50009D03D0919E03812F0E94B00D209739F4EC
:101F6000812F0E94170DDF91CF911F9108958FE966
:101F70009FE00197F1F700C000002197EFCFB0E09C
:101F8000A0E0E5ECFFE00C941F30EC018AE0A82E05
:101F90002881222309F48FC02130C9F599818A81D3
:101FA000913021F422960E949D0F05C0923029F4B1
:101FB00022960E94B00D2196EBCF933021F4229609
:101FC0000E94170DF8CF943011F02196F4CF22968D
:101FD00030E020E0AE014F5F5F4F8053990B8A30B5
:101FE000910550F02150310930F38FE99FE00197BE
:101FF000F1F700C00000F6CFA29EB001A39E700DC5
:1020000011249C01260F371F8981EA01E3CFE22FBB
:10201000F0E0EE53FA4FB490822F86958695869520
:1020200090E0FC01EE54FA4FE4902770F12C022E60
:1020300002C0F594E7940A94E2F731E0E322FF242A
:10204000FC01EE55FA4FC490D12C022E02C0D5945B
:10205000C7940A94E2F731E0C322DD24FC01EE5676
:10206000FA4F049110E002C0159507952A95E2F702
:1020700001701127E114F10419F081EE0E94B00DF6
:10208000C114D10419F086EE0E94B00D8B2D0E9470
:102090009D0FC114D10419F086EE0E94170DE114B2
:1020A000F10419F081EE0E94170D0115110509F4D4
:1020B00082CF8CE278CFCDB7DEB7EAE00C943B302C
:1020C000CF93DF938091BD05835087FD14C090911D
:1020D000BB05CCE0D0E0C91BD109C054DA4F9091C8
:1020E000BA05903108F06BC0883009F453C01092E3
:1020F00039051092BD058091180184FF3EC0809182
:1021000017018F3FD1F1C82F893008F0C8E0982F10
:102110009C1B909317019091960528E89227909325
:1021200096058823E9F08091490590914A05209110
:10213000480526FF06C1FC012C2FA7E9B5E0349124
:102140003D9331962150D9F79C012F5F3F4F8FEF80
:102150008C0F820F932F911D90934A058093490510
:102160006C2F87E995E00E945503CC5FCC3019F0C5
:102170008FEF80931701C093180184E199B19C708F
:1021800031F48150D9F71092BE051092B905DF9154
:10219000CF91089580913905893108F0A8CFE82FB3
:1021A000F0E0E75EFA4F9E01285F3F4F99919193CF
:1021B0002C173D07D9F7885F809339059ACF9D3258
:1021C00009F0A3C0883009F094CF83EC8093960582
:1021D0008AE580931801109248058881807609F479
:1021E00047C0803229F58981813099F48C819D81A5
:1021F000892BF1F48BE395E090934A058093490590
:1022000088E09F81911131C09E81981770F5892FC8
:102210002CC0823041F48AE395E090934A05809384
:10222000490581E0EECF8A3029F48B8180933A050D
:1022300080E0E7CF8930E1F78A819B818115924068
:1022400069F48C819D81892B49F481E08093470555
:102250008E819F819093460580934505888187FFF5
:1022600052C08E8190E8909348058093170141CF2A
:102270002A8110929F05998191110AC01092A005A0
:102280002FE935E082E030934A0520934905B9CF24
:10229000953029F42093BE052FE935E0F4CF963030
:1022A000C1F49B81913049F4CE010E94B90490E4BD
:1022B000909348058F3F91F2A4CF9230A9F39330C9
:1022C00099F3913289F3923279F390E4909348052F
:1022D00098CF983089F0993019F420934305DCCFDA
:1022E0009A3071F09B30C1F69BE49093A2059093D5
:1022F000D7059093AE05D0CF23E435E081E0C3CF7E
:102300002FE935E0FBCF8FEFADCF8091480587FFF8
:10231000F0CE8091450590914605892B71F0809112
:102320004705813051F48881809344051092460519
:102330001092450510921701DCCE8EE180931801B2
:10234000D8CEDC012C2FE7E9F5E03D913193215007
:10235000E1F7FACE1F93CF93DF93E82F792F162F53
:10236000EA01888184FF1CC0298188E82827298305
:10237000CE010296DC012E2F372F512F5E0FF9016F
:1023800021912D939F01452F4E1B1416C4F3612FED
:102390000E9455031C5F1883DF91CF911F91089510
:1023A0008AE58883E5CF2091D60524FF05C046ED58
:1023B00055E066E00E94AA1108952091D60524FFF9
:1023C00005C046ED55E063E00E94AA110895CF9341
:1023D000DF93CAE0D0E08091A10584FF1CC080910A
:1023E000170590911805981799F028E0829FC00171
:1023F000112441EA55E068E089569B4F0E94AA11DA
:102400008091170590E001968F70992780931705AA
:10241000DF91CF9108950E9460108FE99FE00197AE
:10242000F1F700C000002197B1F6F2CFCF93DF9310
:10243000EC01A0911805B0E0CD0101968F709927AD
:1024400020911705281779F093E0AA0FBB1F9A95E2
:10245000E1F7A956BB4F98E0FE0101900D929A95C5
:10246000E1F7809318050E9460100E94E71188E050
:10247000FE01ABE3B5E001900D928A95E1F7DF91A3
:10248000CF910895CF93DF93C5EAD2E060E0CE010B
:102490000E94A2302196C11584E0D807B9F7DF91D8
:1024A000CF9108951F93CF93DF93122F8430E0F4E0
:1024B0006430D0F44A30C0F4C42FD0E0CC0FDD1F1C
:1024C00094E1699FC00DD11D112490E5899FC00D35
:1024D000D11D1124632FCE0189960E94A230612F55
:1024E000CE018A960E94A230DF91CF911F9108956C
:1024F000CF93C82F6FEF811165E885E290E00E94CD
:10250000A2306FEFC11163ED86E290E00E94A2302D
:102510006FEFC1116CEE87E290E00E94A230CF9184
:1025200008959B01883070F49AE0899FB0011124CE
:1025300063577E4F4AE050E0C9010E94743090E03A
:1025400080E008958FEF9FEF0895AAE0B0E0EBEAF6
:10255000F2E10C9427309C0137552F3F310509F0EB
:1025600068F4BE016F5F7F4F0E949112892B31F496
:1025700089859A852A96E2E00C94433080919703EE
:1025800090919803F7CFB0E0A0E0E9ECF2E10C9471
:102590001F307C015B01C42FD22FFC018581882371
:1025A000A9F0409388040E946A0590938704809361
:1025B0008604C77081E001C0880FCA95EAF70E94BF
:1025C000380CCDB7DEB7EAE00C943B3010918804AC
:1025D000141338C080918604909187040E944F059F
:1025E0006C01B701C5010E94A512C816D90650F5A5
:1025F000C0E2CD0F1D17C1F080E2810F883048F492
:10260000177081E0012E01C0880F0A94EAF70E943A
:10261000310CC83048F481E09D2F977001C0880FBD
:102620009A95EAF70E94380C802F0E949D0FC830BF
:1026300040F6D77081E001C0880FDA95EAF70E9472
:10264000310CBFCFC77081E001C0880FCA95EAF78F
:10265000F6CF0F931F93CF93DF93843030F5643020
:1026600020F54A3010F5C42FD0E0CC0FDD1F24E157
:10267000629FC00DD11D112430E5839FC00DD11D77
:102680001124CE0189960E948430082F10E0102F6B
:102690000027CE018A960E9484309801282BC90118
:1026A000DF91CF911F910F91089590E080E0F8CFD6
:1026B000462F2091C4013091C501232B99F4703F1E
:1026C00039F4603F79F48091D5019091D601089555
:1026D000743040F46A3030F4843020F4672F0E9464
:1026E0002913089590E080E00895CF92DF92FF9241
:1026F0000F931F93CF93DF936C010091A4018091FE
:10270000A301082BC3E0D0E010E0FC2EC8010C2E82
:1027100002C0959587950A94E2F780FD0CC0219739
:10272000A0F7F12C8F2DDF91CF911F910F91FF908A
:10273000DF90CF900895B6018C2F0E9458130E940D
:102740004A09019761F3EECFCF93DF93EC010E942A
:102750007513BE010E9458130E944A09DF91CF9160
:102760000895FC018481882371F08781908500970A
:1027700029F00E944A090E94050C089580819181E8
:102780000E94A413F8CF80E00895A6E0B0E0EBEC3F
:10279000F3E10C94263049835A8349815A81992365
:1027A000A1F0222391F0CA010E947513182F682FFF
:1027B00089819A810E94CB0B69817A81812F0E9445
:1027C00058132696E3E00C944230CA010E94970BFE
:1027D000182FF2CFFC01262F87819085009741F4B6
:1027E0004081518162817381848195810E94C513EA
:1027F00008950F931F93CF93DF930FE713E0C9E67C
:10280000D1E0CE010E948430F80161918F016817F8
:1028100019F0CE010E94A2302196CD38F1E0DF07F9
:1028200081F7DF91CF911F910F9108950F931F931F
:10283000CF93DF930FE713E0C9E6D1E0CE010E940A
:102840008430F80181938F012196CD38F1E0DF07C4
:10285000A9F7CEECD1E0FE0185919491009711F09B
:10286000FC0109952C96F2E0CA3CDF07A1F7DF9145
:10287000CF911F910F91089585E290E00E948430DE
:10288000853889F486E290E00E948430833D59F4D3
:1028900087E290E00E94843091E08C3E09F090E065
:1028A000892F8170089580E0FCCF90915D0392FBA9
:1028B000222720F9281779F080FB92F990935D0385
:1028C00060915C0370915D0384E090E00E94C030F1
:1028D00082E00E94AA0E0895DA019C012E5F3F4F0C
:1028E000F90145915491F90125913491A217B3074B
:1028F00058F0FC013496859194910E9464300E94B6
:10290000F91390E080E008958FEF9FEF0895DB01C9
:10291000FC013296259134914217530758F0FC017F
:10292000349665917491A901CD010E94643090E0C4
:1029300080E008958FEF9FEF0895AAE0B0E0E3EA0A
:10294000F4E10C941D3004EE12E082EDC82E82E01A
:10295000D82E95E5E92E92E0F92E27E0922E31ED62
:10296000A32E32E0B32E88248394D6010D931D93B9
:102970006D014AE050E0B701CE0101960E9474302B
:10298000F8013896DF01892D1D928A95E9F7898132
:102990009A81D80111969C938E938F8112968C9375
:1029A00012978D8113968C931397888514968C9328
:1029B0001497898515968C9315978B819C81179612
:1029C0009C938E93169718961C9218978A8587FF6A
:1029D0003CC01E961C921E921D9780FF03C0D8011A
:1029E00018968C9281FF04C0F801908592609087C0
:1029F00082FF07C0D80118969C911897946018968A
:102A00009C9383FF04C0F80190859860908784FFB1
:102A100007C0D80118969C911897906118969C93BE
:102A200085FF04C0F801808580628087015F1F4FA9
:102A3000FAE0EF0EF11C85EAE81682E0F80609F0EC
:102A400094CF2A96ECE00C943930F801B686A5862E
:102A5000C4CFAAE0B0E0EFE2F5E10C942130E9E563
:102A6000F2E088E7DF011D928A95E9F7EAEAF3E0F0
:102A700084E5DF011D928A95E9F789E5C82E82E099
:102A8000D82E7F010DED11E0F701D182C0824AE01E
:102A900050E0B801CE0101960E94743088E0FE013A
:102AA0003196D60101900D928A95E1F789859A8534
:102AB000D70113969C938E931297BAE0CB0ED11C3C
:102AC000E7E0EE0EF11C065F1F4F0535F2E01F0731
:102AD000D9F62A96E8E00C943D30CF9310925E032D
:102AE000C6E0ECE6F1E0DF018C2F1D928A95E9F754
:102AF00090E080E00E94DE0590E080E00E94B90551
:102B0000109295050E94D10AEFECF1E0DF011D92D1
:102B1000CA95E9F71092C8011092C9011092CA0132
:102B20000E948D07CF910895EFE7F3E0128E138E88
:102B30008FEA90E09183808325E0248F88E893E1F9
:102B4000938382838AE090E09583848344E150E01C
:102B50005783468348E050E05187408793878287B8
:102B60006EE170E0758764879787868780E590E0DF
:102B7000918B808B538B428B48E250E0558B448B7A
:102B800042E350E0578B468B48EC50E0518F408F2A
:102B9000158E178E168E91A380A322A30E94F9137F
:102BA0000E946D1510925D0310925C03EDE5F3E059
:102BB00080818460808360915C0370915D0384E018
:102BC00090E00E94C0300E9416140895AEE1B0E07B
:102BD000ECEEF5E10C941C30A0901501B0901601BC
:102BE00081E090E0909316018093150180ECC82E4F
:102BF00082E0D82E00E0760110E015C0F4012591A6
:102C00003491472D612F802F0E94521282E0880E4E
:102C1000911C7394EAE07E12F1CFF4E1EF0EF11C07
:102C20001F5F143019F04701712CE8CF0F5F80E56A
:102C3000C80ED11C0430F9F60E9494151A8219822C
:102C40001C821B821E821D8218861F8288EC90E0E7
:102C50009A8789870DE811E04AE050E0B801CE017B
:102C600001960E94C630065F1F4F0D3DE1E01E0732
:102C700099F77E01FBE0EF0EF11C8AE0F70111925B
:102C80008A95E9F74AE050E0B801C7010E94C630D2
:102C9000065F1F4F0535F2E01F07A1F77E0185E1B2
:102CA000E80EF11C8AE0F70111928A95E9F78FEF9F
:102CB0009FEF9A8F898F87E08E8F4AE050E0B801AE
:102CC000C7010E94C630065F1F4F053AF2E01F079A
:102CD000A1F7B0921601A09215016E96EDE00C944A
:102CE000383080E00E94781260E088E290E00E9434
:102CF000A2300E94E6150E94421281E00E947812E2
:102D00000895CF92DF92EF92FF928FEF9FEF4430C2
:102D1000510508F46CC0FB01C080D180E280F380D3
:102D20000E946D1580915C03C0FA80F9B701A6017D
:102D3000769567955795479540FB81F9B701A601B0
:102D400022E076956795579547952A95D1F740FBF0
:102D500082F9B701A60133E07695679557954795B7
:102D60003A95D1F740FB83F9B701A601E4E07695E7
:102D7000679557954795EA95D1F740FB84F9B701D8
:102D8000A601F5E07695679557954795FA95D1F7A1
:102D900040FB85F9B701A601A6E0769567955795A2
:102DA0004795AA95D1F740FB86F9B701A601B7E090
:102DB0007695679557954795BA95D1F740FB87F972
:102DC00080935C0380915D03D0FA80F9D1FACC2422
:102DD000C0F8C0FA81F980935D0360915C03709143
:102DE0005D0384E090E00E94C03090E080E0FF90BE
:102DF000EF90DF90CF9008950E946D152FEF84E340
:102E00009CE0215080409040E1F700C0000088E144
:102E100098E00FB6F894A895809360000FBE909349
:102E20006000FFCFA8E0B0E0E8E1F7E10C941D30CE
:102E30008E010F5F1F4F88E0F80111928A95E9F724
:102E40009AE5E92E91E0F92E6801AA24A394B12C09
:102E5000F70181917F018F3F09F446C0F894E82F74
:102E6000E295EF70F0E021A18F70A50102C0440F40
:102E7000551F8A95E2F7CA01922F982B91A392A130
:102E80008095892382A3789400C0EEE5F1E021E0EB
:102E900030E0912C812C41914F3F09F467C0A42F61
:102EA000A295AF70B0E090968C9190E04F7002C008
:102EB000959587954A95E2F780FD58C0C901882A03
:102EC000992A220F331F51E0E836F50721F7F70161
:102ED000319780818F3F11F00E944E0880EA8A95D9
:102EE000F1F7F60191828082F2E0CF0ED11C4EE51F
:102EF000E41641E0F40609F0ABCF48E050E0B80139
:102F00008BE991E00E945730892B99F188E0F80114
:102F1000ABE9B1E001900D928A95E1F781E08093F1
:102F20009A010E946A05909399018093980180917B
:102F30009801909199010E944F050597F0F048E0A3
:102F400050E06BE971E08CEB91E00E945730892BE7
:102F5000C9F088E0EBE9F1E0ACEBB1E001900D9253
:102F60008A95E1F781E010929A0108C090E080E034
:102F7000A6CF80919A018111DACF80E02896ECE00B
:102F80000C94393080E0EFCFA7E0B0E0EAECF7E155
:102F90000C9417307C01DC0114968C91882309F481
:102FA0006DC161E0C7010E94EA138C01F7018581C0
:102FB000882309F18091890490918A040097D9F0BF
:102FC00008171907C1F0FEE08F9FC0011124FC0112
:102FD000E251FE4F20812460208387519E4FDC0107
:102FE0000D931C930E942F0B1092950561E0C70171
:102FF0000E94EA138C01F7018581882309F4D7C068
:10300000C80197578038910508F0ABC0D02EFFE07B
:10301000F01708F423C18FEF93E00E9484308111F0
:103020001DC105EA12E0D11036C019821A821B8236
:103030001C8299249A9468013FEFC31AD30AC801ED
:103040000E94843089831A82882309F407C1813061
:1030500009F081C0580142E0A40EB11CC6010E94D3
:103060008430C82E8A83882309F4F8C0C5010E94E1
:103070008430D82E8FEF8C0D8330D8F4580153E074
:10308000A50EB11CDB82DD2021F0CE0101960E944D
:10309000BF0F8501D0CF011524E0120709F4DEC06F
:1030A000C8010E948430811101C0DA940F5F1F4F64
:1030B000BACF8BEF8C0D833030F5C8010396DB82DD
:1030C0005C01DD2031F35801A4E0AA0EB11C0E947E
:1030D00084308C838823E9F28B819C818130BFEF1F
:1030E0009B0710F0982F8827E6E0CE1631F0F7E026
:1030F000CF1631F00E943327CCCF0E940E27C9CFC4
:103100000E949526C6CF24E0C212C3CF580134E0F6
:10311000A30EB11CC80103960E948430DD2009F47F
:103120009DC0882309F49AC08150990B989E900104
:10313000999E300D11244D2D4150550BCA01820F1F
:10314000931F019708F4A5CFAFE9BFE01197F1F7FE
:1031500000C00000F6CFCE0101960E94BF0F5601BD
:1031600098CF5F9AF7018581882309F472C0289A65
:10317000D70115965C90552009F484C00E35BCE744
:103180001B0709F468C00F35ECE71E0751F00D3539
:10319000FCE71F0709F076C080910001882309F43D
:1031A0005AC01092000180E00E944A0D57C0680189
:1031B000E7E5DE1AFFEFCF16D10409F078F56FEDE1
:1031C00071E08C2D0E949112892B19F58EE08C9D57
:1031D000F0018D9DF00D1124E751FE4F8281813069
:1031E000F9F48091DF019091E001892B91F08091B9
:1031F000E1019091E201892B61F08091E3019091CE
:10320000E4012091E5013091E601822B932B892B7B
:1032100079F0D70115968C918111A3CF5F98A2CF39
:103220008230B9F78091E3019091E401892B89F311
:103230002EE02C9DC0012D9D900D1124FC01E2512A
:10324000FE4F20812E7F208387519E4F0E942F0B9F
:10325000E0CF28988DCF81E080930001809192018A
:10326000877061F0D70115968C91882339F0809191
:103270005D0382FF03C082E00E94AA0E2796E2E16E
:103280000C94333080910001882309F458C648011A
:1032900020EE821A91084090950180918F01482A72
:1032A00080915E03482A38E08316910408F086C0B6
:1032B00098012770332781E090E001C0880F2A959C
:1032C000EAF7552009F477C0482AD7018D919C91DF
:1032D0000E94970B21E030E0390102C0660C771C98
:1032E0008A95E2F7E0918404F0918504FF83EE83F0
:1032F00020907201309073011D822D81E22FF0E049
:10330000EE0FFF1FEE52FD4FC080D180C114D104DB
:1033100009F479C6411005C0D60112968C9181112D
:1033200089C0F601838190E086219721892B09F4D9
:1033300081C08085982F977009F487E0F8E08F1698
:10334000910408F055C0552009F44EC0869581704F
:10335000882309F46FC0D601AD90BC900A151B05F7
:1033600019F4552009F466C0EE81FF81CE16DF0600
:1033700009F460C0D6011D96ED91FC91309721F0C3
:103380008081882309F456C0642DC6010E9461061D
:10339000882309F44FC00A151B0509F09DC60115C5
:1033A000110509F49EC651109EC6A214B30409F07B
:1033B00041C0512C98C68095482287CF552009F4EA
:1033C0000BC610937301009372010E945E05609317
:1033D0007B0470937C0480937D0490937E04109210
:1033E00083041092820471CF82FB882780F9B0CFCA
:1033F000552001F18170ACCF0E94170D92C6049741
:10340000813A910558F46A2D8AE691E00E949F0561
:10341000552009F494C50E94D10A20CF0E94D10AF8
:103420008FE39CE90197F1F700C000008A2D0E940C
:10343000B00DEECF9D819F5F9D835FCFFC0120810A
:1034400031810217130709F073C5511073C510922B
:10345000810480E00E944A0D72C5902F812FB7C56C
:10346000F901858181FFE3C5C9010E94150BDFC504
:1034700090911301892F8E7F90FF816080931301BB
:103480000E94570B00C6809113018E7FF7CF809169
:1034900013018F7E013E110531F0053E1105E9F45F
:1034A000809113018F7D809313018091130180FF20
:1034B00029C0D70115968C910832110570F50E318F
:1034C000110508F07BC004301105C8F58823D1F040
:1034D0001092A6031092A50315C0C8019052811541
:1034E000904318F78091130182FF0CC080919C03D8
:1034F00081FD08C020EB31E040E0B60190E080E0C3
:103500000E94EE0EF801E851FC47E730F10508F0A3
:10351000C4C5E052FF4C0C940A300933110558F42D
:103520000D32110518F40B32110581F690919A03B2
:1035300092FDCCCF08C004361105C1F3C7CF9091DE
:103540009A0394FDC3CF882309F4A8C08091950104
:1035500090915E03892B8D7FB1F11092A60310929A
:10356000A50380919A0381FD2EC0F80143E0F695F2
:10357000E7954A95E1F7EE71FF27E15AFC4F980174
:103580002F70332781E090E002C0880F991F2A95A1
:10359000E2F7809590952081318182239323918356
:1035A000808360E0C8010E94610E809195018D7F4B
:1035B0000E94730A82E00E94AA0E50CE90919A0354
:1035C00093FD84CFC0CF89E0F701A0EBB1E001907B
:1035D0000D928A95E1F71092B5011092B301109205
:1035E000B2018091A5039091A60308171907D1F5A0
:1035F00020919A0325FF36C03091130131FF02C09C
:1036000026FF30C02091A3033091A4035601A21AD3
:10361000B30AB7010E94A512A816B90618F5809141
:103620005E0381FF08C080911301806180931301C4
:1036300082E00E94A30A80915E0385FF08C080910A
:10364000130180628093130180E20E94A30A6091BB
:103650001301669561708091A5039091A6030E9465
:10366000610EFCCD8091950190915E03982B209185
:10367000130191FB21F9209313018D7F0E94730A9E
:103680001093A6030093A503D092A403C092A303B2
:10369000809113018460809313018CCF970140E0E7
:1036A000B601C8010E94EE0ED9CD06E221EE41EE30
:1036B0006AE17CE7C7010E94C312D0CD07E225EE84
:1036C00045EE6BE17CE7F6CF06E221EE40EE68E1E5
:1036D0007CE7F0CF07E225EE44EE69E17CE7EACF34
:1036E00006E221EE42EE6CE17CE7E4CF07E225EE54
:1036F00046EE6DE17CE7DECF08E221E045EE6EE1CB
:103700007CE7D8CF80915C03816080935C0395C097
:1037100080915D03886080935D038FC080915C031E
:103720008260F3CF80915C038460EFCF80915C0373
:103730008860EBCF80915D038160EDCF80915D0368
:103740008260E9CF80915C038061DFCF80915C0370
:103750008062DBCF80915C038064D7CF0E946D15BF
:1037600080915C038068D1CF80915C038C60CDCF69
:1037700080915D038360CFCF80915C038E7FC5CF46
:1037800080915D03877FC7CF80915C038D7FBDCF24
:1037900080915C038B7FB9CF80915C03877FB5CF2D
:1037A00080915D038E7FB7CF80915D038D7FB3CF16
:1037B00080915C038F7EA9CF80915C038F7DA5CF24
:1037C00080915C038F7BA1CF0E946D1580915C037B
:1037D0008F779BCF80915C03837F97CF80915D0330
:1037E0008C7F99CF80915C0382FB992790F921E02F
:1037F000922790FB82F990FB83F987CF80915D033C
:10380000982F909591708E7F892B90FB81F983CFB3
:1038100090915C03892F8F7B96FF806476CF0E9406
:103820006D1590915C03892F97FB87F980586DCFB8
:1038300061E08EE090E00E94A23060915C037091A4
:103840005D0384E090E00E94C0300E946D1506CDBB
:1038500060E0EFCF90915C03892F8F7E94FF8061B1
:1038600054CF90915C03892F8E7F90FF81604DCF64
:1038700090915D03892F877F93FF88604CCF06313D
:10388000FCE71F07B9F580915E03982F9A7A309173
:10389000990330FF04C0482F447409F090E031FFD1
:1038A00004C0482F417109F090E032FF04C0482F56
:1038B000487809F090E033FF03C0827209F090E08D
:1038C000222371F081E0911101C080E080937401A6
:1038D00069E2911165E38AE691E00E949F059BCD24
:1038E00080917401811104C089E20E94800B93CD04
:1038F00085E3FBCF07373CE7130709F458C00837C7
:103900004CE7140709F45EC0222381F003305CE722
:10391000150709F478C008F05AC001159CE719078B
:1039200009F463C001301C4709F473C0F7018781B3
:103930009085009709F47BC00E944A09182F092F2F
:10394000F701C580B680B2943FE0B3228091920126
:103950008770F1F0AC2CCC20E1F0892F807F80348F
:1039600051F080E2810F883098F0B11004C0892FA7
:10397000807E803269F080915D0382FF09C082E021
:103980000E94AA0E809192018770AA24A3948111AB
:10399000A12C902E92942FE09222FBE0F91508F4CE
:1039A000D6C0E92DF0E0E951FF4C0C940A3081E0DB
:1039B000222351F00E94C10E43E062E081E00E94A8
:1039C0007D0E4CCC82E0F4CF0E949D0EF5CF0B35DE
:1039D000BCE71B0751F10C35ECE71E07E1F00A3597
:1039E0001C4709F0A3CF81E01DC00E946D152FEF89
:1039F00034E34CE0215030404040E1F700C000008B
:103A00000E943A052BCC6FEF7FEF90E080E00E94A0
:103A1000C0300E94FC1680915D0382FB882780F9EC
:103A200091E089270E94551481CF80E0FBCF8581EA
:103A300000811181882369F0C8010E947513D82E76
:103A4000682FC8010E94CB0BB8018D2D0E9458131E
:103A500073CFC8010E94970BD82EF6CF202F2F705E
:103A6000D22E802F807F19F0D29490EFD922CC20D3
:103A7000A9F0DD2059F080E2810F883010F011119B
:103A800007C08D2D0E94AA0A0E94D10A812F5DC015
:103A900080919505D82AD0929505F6CF812F0E9466
:103AA000170DDD2009F453C080E2810F883010F03B
:103AB000111104C08D2D0E94A30A03C08D2D0E94F8
:103AC0009C0A0E94D10A43C0302F3F70D32E802F12
:103AD000807F803219F0D29480EFD822112339F1FF
:103AE000113009F4B6C0CC2009F4C2C0BB2009F4DF
:103AF00066C020E0D7014C9111965C911197129607
:103B00006C91129713967C91139714968C9114973D
:103B100015969C910E94C51380919C0381FDB6CFA0
:103B2000F701868180FFB2CF8F70868348C0809175
:103B30005D0382FD40C0CC20C1F1DD2029F08D2D38
:103B40000E94AA0A0E94D10A80E00E94B00DA92D0D
:103B5000A850BB0B149710F40E940306812F902FDE
:103B60000E94050C8111C4C110927601109275015A
:103B7000AA20B1F08091920180FD12C0D701159664
:103B80001C928695869586950E94C10EC7010E945B
:103B9000C417809192018695869586950E949D0E08
:103BA00060E0C7010E94EA1369CB80E00E94170D14
:103BB000DD2069F27FCFCC2091F1B11004C08D2DB2
:103BC0000E94380CC4CF41E0B41211C0809095011E
:103BD0008D2D8821D81609F4BACF0E946A059093DA
:103BE000940180939301D828D0929501B0CF809111
:103BF0009B03823008F4ABCFB812A9CF8D2D0E9461
:103C0000380C8D2D0E94870A80918F019D2D98235D
:103C1000D91609F49CCFD82AD0928F0198CFB11031
:103C20000AC08D2D0E94310C8D2D0E94870A8D2D8A
:103C30000E94760B8CCF80919B03823008F487CF53
:103C400051E0B51284CF80915E038D2109F47FCFBE
:103C5000E8CF8091A103CC2021F08B1508F477CF19
:103C6000AECFB81608F073CF8D2D0E94310C6FCFF8
:103C7000BB20D1F380919F039091A003193321F0D1
:103C800080919D0390919E030E94E40E812F0E94DB
:103C9000170D5DCF802F86958695837069F08130F2
:103CA00009F055CF812F902F9370C11002C080E092
:103CB00090E00E94B9054BCF812F902F9370C110D7
:103CC00002C080E090E00E94DE0541CF6C2D812F84
:103CD0000E943F0C3CCF802F837091F5C11037CFED
:103CE000412F429546954770440F440F812F8F70A6
:103CF000042E01C0880F0A94EAF7212F207114FFC7
:103D000007C02FE030E001C0220F4A95EAF7209566
:103D1000302F369536953370323069F050F440913B
:103D2000A301313029F0822B84230E94020C0FCF93
:103D3000842B822BFACF282B8091A3018227F5CFE9
:103D40008695CC2011F0802F8170882309F4FFCE56
:103D5000412F429546954770440F440F812F8F7035
:103D6000042E01C0880F0A94EAF7212F207114FF56
:103D700007C02FE030E001C0220F4A95EAF72095F6
:103D8000302F369536953370323069F050F44091CB
:103D9000A401313029F0822B84230E94780ED7CEE3
:103DA000842B822BFACF282B8091A4018227F5CF78
:103DB000F02FFF70DF2ECC2029F08F2F0E94C10E34
:103DC000812FFECE812F0E94310C8D2D0E949D0EE1
:103DD000BECE123F89F160F4103FB9F0113F81F07F
:103DE000CC2009F480C0B11051CE802F8F7128C033
:103DF000133F49F1143FA1F780915D0382FD2FC06D
:103E0000802F8F71CC2011F31BC08091A103CC2097
:103E100079F0B81608F09BCE202F2F7181E090E04A
:103E200001C0880F2A95EAF79091A4018927B5CFA0
:103E30008B1508F48CCEF0CF802F8F71C110C6CFB8
:103E40000E94C10E84CE80E0CC2009F4A6CF81E090
:103E5000902F9F7101C0880F9A95EAF79ECF8091AD
:103E60009B03823040F1CC20D1F090919201977069
:103E7000943041F40E94B00A802F8F710E949D0EF1
:103E8000A12C65CEB816E0F7202F2F71D22E822FED
:103E90000E94C10E63E08D2D0E94CD0EF1CFB816A9
:103EA00030F00E94B00A64E0802F8F71F5CF81E07E
:103EB0000E94AA0EE5CFCC2059F0302F3F71D32EAF
:103EC000832F0E94C10E63E08D2D0E94CD0E3FCE48
:103ED00081E00E94AA0E41E04B1508F038CE82E046
:103EE0000E94AA0E34CEB110C5CE802F8F716ECF36
:103EF000CC2019F0B11038CE3BCEB11035CE20E039
:103F0000F7014081518162817381848195810E9492
:103F1000C51380919C0383FF27CE809175019091FA
:103F20007601029709F020CE812F0E949D0F1CCEB2
:103F3000552029F0DC0118968C9185FF8ACAC801AA
:103F400097558F3F910511F008F071C05801BB24BF
:103F5000BEE00B9FF00111249F0127513E4F6901E4
:103F6000D70115968C91E251FE4F908180FB90F91C
:103F70009083882309F474CA0E946A059093AF0164
:103F80008093AE01F60182818F5F828380919505D7
:103F900090915E03892B83838091950184830680B1
:103FA000F781E02D309731F0D6011C966D917C9110
:103FB000C60109958EE08A9DF0018B9DF00D1124BC
:103FC000E751FE4F858181FF48CA90E080E09093E1
:103FD000890480938A042BC08091720190917301AF
:103FE0000817190781F41092730110927201109250
:103FF0007B0410927C0410927D0410927E04109237
:104000008304109282048091840490918504009727
:1040100009F495CFA8E08A16910408F00FCA642D20
:104020000E946106811103C081E00E944A0D8091C7
:104030009A0380FF67CA0E946A056C01D701159632
:104040008C91882309F423CA8091130182FF08C050
:1040500020EB31E040E0B60190E080E00E94EE0EFF
:104060000431BCE71B0709F40ECA0531ECE71E0753
:1040700009F4FEC90331FCE71F0729F480911301FD
:10408000816080931301C80190528115904308F01C
:104090000CCA1092A6031092A503F70125812223D2
:1040A00009F4EDCB10928804C8019057839708F06B
:1040B000E6CB84E090E00E948C3090935D03809387
:1040C0005C03F801E150F047E232F10508F01ACB49
:1040D000ED50FF4C0C940A30A114B10409F065C9ED
:1040E000512CB12CA12C80E00E944A0DD092850465
:1040F000C092840481E080938104F60185818093DD
:104100007F0451100EC0AB2861F0F60180819181CF
:104110009C0124503109213A310508F06DC90E94F3
:10412000800BD6011696AD90BC90C5019A9581156D
:104130009F4110F4E0EEBE2277247394C5010197ED
:104140008F339E4708F0712CD6011996ED91FC91A2
:104150001A97309731F01B966D917C9181E009950B
:104160007822772079F0F601868197810E94000EEF
:1041700080938004C501F8E08F16910408F03FC9D0
:104180000E9410060E94D10A43C9B0E0A0E0EBEC07
:10419000F0E20C94223080918C01807F09F054C0B1
:1041A00080918B01882309F44FC0E091940589E048
:1041B000D82E80914B058E1709F446C00E2F10E0C3
:1041C000ED9DF0011124E45BFA4F8481882309F40A
:1041D00040C0D09EE001D19ED00D1124FE01E45BD1
:1041E000FA4F918180918701981333C0908180911B
:1041F000860198132EC0858181112BC0E280F38047
:104200008091880190918901E81AF90A60E086E8B6
:1042100091E00E94EA1366E871E00E94A512E81698
:10422000F906B8F480918C018F70806180938C01C5
:10423000CE5ADA4F88818F708061888386E891E05A
:104240000E94C4170E948D0BCDB7DEB7E7E00C9437
:104250003E30F8013196E770ACCFA8E1B0E0E3E37F
:10426000F1E20C941A308C0186E0F801DE015396DD
:1042700001900D928A95E1F7D80114967C901497DD
:104280001596EC9086E8A82E81E0B82E80918A01E0
:1042900081112AC0711003C0FF24F3941CC0EE20CA
:1042A000F9F0C8010E94B113F82E8823C9F089E003
:1042B000F801A6E8B1E001900D928A95E1F78091AE
:1042C0008A01813031F480918601909187010E94AA
:1042D000A4130E94C5208F2D6896EFE00C94363011
:1042E000C8010E94C417D8CFF80150806180C280F5
:1042F000D38060E086E891E00E94EA13F0908B01A1
:1043000080918801909189014601881A990A60E09C
:1043100086E891E0FF2009F428C10E94EA1366E8CC
:1043200071E00E94A5128816990608F0D1C0772086
:1043300009F4B2CF80918C01382F307F2091870112
:10434000D80111969C911197311171C029131FC08A
:10435000209186019C9129131AC040918D015091A2
:104360008E0117962D913C914217530781F4E1106D
:1043700054C08F70806180938C0186E891E00E9428
:10438000C41780918C01F8018683F12CA4CFE11031
:1043900044C0662D852D0E949A04E82E882381F062
:1043A00080919C0380FFF1CF86E891E00E94C417C2
:1043B00089E0E6E8F1E0DF011D928A95E9F7E5CFB3
:1043C0005B8A6C8A8B899C890E94A413292F229571
:1043D0002F70243058F49F70223088F0992399F080
:1043E000F8019681907F79F4FE2C75CF2A5F2F70AB
:1043F000223068F0C8010E94C417EF2CF5CF992332
:1044000011F0882389F3805E883070F3F3CF803F0A
:1044100058F3815F833070F7E7CF80918C01816022
:1044200080938C0180919C0381FDAFCFBDCF291378
:1044300020C0209186019C9129131BC040918D01C1
:1044400050918E0117962D913C9118974217530762
:1044500081F4E1100EC016968C93C8010E94C41717
:1044600089E0F801A6E8B1E001900D928A95E1F7A4
:1044700032CFC8010E94B113882309F431CFEE2056
:1044800009F42ECF80918C018032B8F02091860102
:10449000309187013B872A87DD86CC8690918A01FF
:1044A0009E871F86888B80918D0190918E019A8BBB
:1044B000898BCE010A960E94C41789E0F801A6E80C
:1044C000B1E001900D928A95E1F70E94C520E4CEFB
:1044D00080918C01982F907F09F466CF772009F4A2
:1044E000DBCE20918701F801918129131AC0209118
:1044F00086019081291315C040918D0150918E0144
:10450000278130854217530761F4E1100AC0868382
:10451000C8010E94C41789E0D5011D928A95E9F768
:10452000DACEC8010E94B113882309F4D9CEEE2057
:1045300009F4D6CE80918C01803208F4BECF209150
:104540008601309187013A832983DC82CB82909166
:104550008A019D831E828F8380918D0190918E01AF
:1045600099878887CE010196A6CF0E94EA1366E854
:1045700071E00E94A5128816990608F04AC07720BB
:1045800009F48ACEFE2CEE2009F4AACE9091870180
:10459000F801818198132FC0909186018081981332
:1045A0002AC020918D0130918E0187819085281736
:1045B000390709F58091880190918901C81AD90AB3
:1045C000F8ECCF16D10408F04BCF90918C0190FD00
:1045D00047CF907F09F444CF80918C01D801169683
:1045E0008C931697903F09F438CF982F907F905F67
:1045F0008F70892B30CFC8010E94B11381115DCF1C
:1046000080918C01816080938C01C8010E94C41745
:1046100062CE89E0F50111928A95E9F75CCEA2E1BC
:10462000B0E0E5E1F3E20C9425300A871B872C8784
:104630003D874E875F87688B798B8A8BCE010A9680
:104640000E942D2181110CC089E0FE013A96DE0105
:10465000119601900D928A95E1F78E8581110BC01C
:1046600019E08091940590914B05891331C06296B1
:10467000E4E00C94413020914B0530E0C9010196F3
:1046800087709927409194054817190699F099E089
:10469000929FD001939FB00D1124A45BBA4FFE01ED
:1046A000319601900D929A95E1F780934B050E9407
:1046B0008D0BD6CF0E946D1510924B05109294056C
:1046C00089E0E6E8F1E0DF011D928A95E9F7C8CFBD
:1046D000819FC0011124845B9A4F0E942D21882361
:1046E00031F28091940590E001968770992780932C
:1046F0009405B7CFEF92FF920F931F93CF93DF9361
:104700008091FE03882361F0E091A9038DE0F82EEB
:104710008091FE03E81748F01092FE031092A9035F
:10472000CDB7DEB7E6E00C943F30EE24E394EE0E16
:10473000E092A903CE2FD0E0EF9DF0011124E150CB
:10474000FC4F84818823E9F087819085892B21F4AF
:1047500081859285019659F40081118122813381EE
:10476000448155816681778180850E940F23FC9E5C
:10477000F001FD9EF00D1124E150FC4F14821092C7
:104780009505EE2DC5CF109272041092710410920F
:1047900014018091700480936F040E94AF060E9400
:1047A0007A230895B0E0A0E0E8EDF3E20C9418302D
:1047B000C0916F0497E0992E01E010E02DE0322EB9
:1047C00034E0432E55245394809170048C1309C017
:1047D0000E947A230E94AF06CDB7DEB7E1E10C94C8
:1047E0003430D0E0FE01EE0FFF1FE959FB4F80810E
:1047F0009181989ED001999EB00D1124A655BC4F71
:1048000014962C911497211159C06090FE03EFEF7C
:10481000F3E030E020E0812C5D01261508F04CC06B
:10482000E384F484D501CD90DC906FEF7FEF712CA1
:10483000472D50E0DA01AA0FBB1FAC0DBD1D0D9036
:10484000BC91A02D109731F0EA16FB0609F4BA01CD
:104850007394EECF6F3F7607A9F1D80102C0AA0F7B
:10486000BB1F6A95E2F78A2AB801072C02C0660FBF
:10487000771F0A94E2F7AB014150510984161506DF
:1048800001F5329EF001339EF00D1124E150FC4FF2
:10489000989ED001999EB00D1124A655BC4F12963A
:1048A0002D913C9113973087278344821082118287
:1048B0009287818715965C920E9481062196C3702B
:1048C00083CF14822F5F3F4F3D96A7CFAEE1B0E07C
:1048D000ECE6F4E20C9417304B8B5C8B6D8B7E8B8B
:1048E0008F8B988F882349F0809175019091760184
:1048F00001969093760180937501888D81111092B5
:104900009505188A198A1A8A86E0FE017396DE01D7
:104910001A9601900D928A95E1F780915D0382FFCE
:104920001EC08091810390918203892BC1F00E9467
:104930006A052091900130919101821B930B209187
:104940008103309182038217930720F080919201B6
:1049500082FFE7C10E94B70A81110E94680A8E8512
:10496000882389F061E0CE010A960E94EA136C0167
:104970008F8520E5C2162CE7D20689F4882329F119
:1049800081E0809314010A851B852C853D854E8529
:104990005F85688979898A890E940F23CDC031E5B6
:1049A000C3163CE7D30629F4882379F00E94C32379
:1049B000EACF42E5C4164CE7D40639F4882329F03F
:1049C000809114018111F2CFDBCF9AEAE92E93E0B6
:1049D000F92E412CB12CA12C88248394912CBE015A
:1049E0006F5F7F4F7A8F698F22242394F701408174
:1049F000518166246A94762C20E0822F90E0FC019D
:104A0000EE0FFF1FE40FF51F6081718161157105C5
:104A100031F0C616D70609F43C012F5FEECF312CDA
:104A2000FFEF6F167F0609F448C0F701448130900C
:104A30001401832D411180E0F82FF1703F2EF70112
:104A4000558086819F85992309F4F7C0332009F4A6
:104A5000F4C00091950310919603511013C0A40166
:104A6000062C01C0440F0A94EAF7842B86838091B8
:104A7000A7039091A8038017910720F41093A8032F
:104A80000093A703C40102C0880F991F2A95E2F77B
:104A90000197F70126812817190679F4809171048E
:104AA00090917204009709F44BC00E944F050817BB
:104AB000190708F045C0F70124824328FFEFAF1A19
:104AC000BF0A27E0E20EF11C3CE0A316B10409F096
:104AD0008DCF8F85882309F410C1442009F40DC1BE
:104AE0000E946A0590937204809371048091FE0382
:104AF000883010F591E0980F9093FE0399E0FE0145
:104B00003A96DE01119601900D929A95E1F74DE0EB
:104B1000849FC001112481509C4F29E0FE013196F1
:104B2000DC0101900D922A95E1F72FEF3FEFFC0198
:104B300032872187D486C3866E96E2E10C943330A7
:104B400080916F0450917004982FF0E0E0E085139D
:104B500014C090936F04EE16FF0609F4AECF90E0F8
:104B6000FC01EE0FFF1FE959FB4FB182A0820196B5
:104B70008370992780937004A0CF682E712CF30165
:104B8000EE0FFF1FE959FB4F20813181F7E0F29FC3
:104B9000D001F39FB00D1124A655BC4F2D913C912F
:104BA00011973E8F2D8F40E020E030E0E32FF0E0C2
:104BB000EE0FFF1F6D8D7E8DE60FF71F00811181B7
:104BC00001151105E1F0F7010190F081E02DFC8F56
:104BD000EB8F20E005C00617170709F4432D2F5F60
:104BE000E22FF0E0EE0FFF1F6B8D7C8DE60FF71FBD
:104BF000608171816115710571F73F5FD7CF4423E3
:104C0000C9F0F701231708F0FD012482EE16FF0614
:104C100021F490936F04342E50CF981305C0AE1733
:104C2000BF0711F49F5F937093012F5F3F4F822F57
:104C300083708DCFF0E0E0E0F7CF90E0511020C01E
:104C4000B40102C0660F771F2A95E2F79B0121503D
:104C500031098217930731F4442309F44CC0C5018C
:104C60000E948106C401062C01C0880F0A94EAF74D
:104C7000982F9095F701868189238683352C1DCF47
:104C8000AC01062C02C0559547950A94E2F7BA018B
:104C9000617077279C012150310982239323892B4E
:104CA00031F5672B21F1F70182819381892BE1F0A6
:104CB000E98DFA8D27E011922A95E9F70E946A059D
:104CC000282F8B839C8334E03D83F701828193817D
:104CD000782F8887998709811A813C8144E05E8119
:104CE0006F81892F0E940F23F7011582BBCFF42F0C
:104CF000F1705F2EB7CF532CB5CF90916F04809198
:104D00007004981729F00E94D223411015CF3BCE92
:104D10000E947A2310927204109271040E94AF06CE
:104D2000F4CF82E00E94AA0E15CEA6E0B0E0EBE937
:104D3000F6E20C9427309093D6018093D50181152B
:104D400020E2920730F40E94310E2696E2E00C94A5
:104D5000433080EF89838A830E946A058160682FCF
:104D60009C838B8349815A817C8181E090E00E9401
:104D70006624EBCF0F931F93CF93DF938C01EB014E
:104D80006FED71E08C2F0E949112892BA1F480911C
:104D90009D0390919E030E94E40EDD27C952DE4FD1
:104DA0008881F801128218828330F1F048F4813052
:104DB00059F0823081F0DF91CF911F910F910895CA
:104DC0008430B9F08530B9F78091DF019091E0012E
:104DD000009789F306C08091E1019091E20100976C
:104DE00099F30E949526E7CF8091E3019091E40129
:104DF000F6CF8091E5019091E601009791F720911F
:104E0000DF013091E0018091E1019091E2012115F3
:104E10003105F1F2009729F7C901E3CFA6E0B0E030
:104E2000E4E1F7E20C9427309093D6018093D5010A
:104E3000811520E2920730F40E94490E2696E2E0A6
:104E40000C94433080EF89838A830E946A058160D5
:104E5000682F9C838B8349815A817C8181E091E01A
:104E60000E946624EBCFCF93DF93EC010E940E27C4
:104E700080919D0390919E030E94E40ECE010E94BA
:104E80009526DF91CF9108950F931F93CF93DF93D2
:104E90008C01862F6FED71E00E949112892BB1F485
:104EA000C091DF01D091E001209781F0F80182816B
:104EB000833051F4CE010E943327CE010E94332764
:104EC000CE010E94332702C08430D0F7DF91CF910A
:104ED0001F910F9108950F931F93CF93DF938C0130
:104EE000EB016FED71E08C2F0E949112892B09F07C
:104EF0005CC0FE01FF27D80112968C911297E952EF
:104F0000FE4F8130B9F415969C9192FF02C08083C8
:104F10000AC090FFFCCF82E080838091E1019091F4
:104F2000E2010097B9F48091DF019091E0010097D0
:104F3000E1F110C08230B9F515968C9182FD28C040
:104F400080FD0BC083E080838091E3019091E401B8
:104F5000009701F10E940E2728C084E08083809191
:104F6000E5019091E6010097A9F78091DF0190910A
:104F7000E0010097F9F00E9433278091E1019091C0
:104F8000E201009739F78091DF019091E001E2CFD3
:104F900085E080838091DF019091E001009729F006
:104FA0000E943327F0CF86E08083DF91CF911F915D
:104FB0000F9108958091E1019091E201B8CFA6E0B0
:104FC000B0E0E5EEF7E20C9425300E946A058C0112
:104FD00080919601909197018017910781F0198235
:104FE0001A820E946A05682F49815A81792F80E0D0
:104FF00090E00E94662410939701009396012696F4
:10500000E4E00C94413078941F921FB61F92112453
:105010008F939F93AF93BF93809193049091940447
:10502000A0919504B09196040196A11DB11D8093A5
:10503000930490939404A0939504B0939604BF9125
:10504000AF919F918F911F901FBE1F9018951F9237
:105050001FB61F9211248F939F93AF93BF9380919C
:105060009104811113C08091930490919404A091B4
:105070009504B09196044196A11DB11D80939304AF
:1050800090939404A0939504B0939604BF91AF912C
:105090009F918F911F901FBE1F901895CDB7DEB7BF
:1050A0006B970FB6F894DEBF0FBECDBF0E946A05A6
:1050B0009093C7018093C60180E890E00FB6F89402
:1050C00080936100909361000FBE8CE498E0909310
:1050D0006901809368010E9468070E9429150E9457
:1050E0009D140E9416148091690088608093690065
:1050F000E99A8BE48093A2058093D7058093AE054F
:105100008AE58093A1058093D6058093AD05539AD7
:1051100080E0815009F01EC15398789482E084BDEC
:1051200093E095BD9AEF97BD80936E000E943C146A
:10513000811102C00E94711681E30E944E0883E330
:105140000E944E0880E60E944E0884E60E944E08A7
:105150000EE511E0F80181918F018F3F11F00E945F
:105160004E08F1E008361F07A9F788E0ECEBF1E004
:10517000DF01282F1D922A95E9F7EBE9F1E0DF0125
:105180001D928A95E9F790E080E00E948C30863E7F
:105190009E4F21F40E943C14811167C066EE7EEFA1
:1051A00090E080E00E94C03060E082E090E00E94E9
:1051B000A23060E083E090E00E94A2301092A30150
:1051C00060E074E184E090E00E94C03060E086E03E
:1051D00090E00E94A2306FEF87E090E00E94A23042
:1051E00040E050E0BA0188E090E00E94B43060E016
:1051F00084E290E00E94A23060E087E190E00E94AB
:10520000A23060E08CE090E00E94A23060E08DE08F
:1052100090E00E94A23019821A821B821C821D8299
:105220001E821F82188648E050E068E170E0CE01DF
:1052300001960E94923040E050E0BA0180E290E096
:105240000E94B43080E00E9478120E94711640E003
:1052500050E0BA018FE090E00E94B43040E050E0AE
:10526000BA0183E190E00E94B43082E090E00E94B5
:1052700084308093A50184E090E00E948C3090936C
:105280005D0380935C030E941217EFE3FCE9319702
:10529000F1F700C000000E9412178091BC0180FF4E
:1052A00008C06FEF7FEF90E080E00E94C0300E9466
:1052B0003A0583E090E00E9484300E94020C8091C5
:1052C000A4010E94710E81E091E090938E0480937E
:1052D0008D04FFEF20E742E0F15020404040E1F72D
:1052E00000C000008E010F5F1F4FDD24D3943E01EC
:1052F0005BE0650E711CCC24C3948091BC05F090DA
:105300009204882379F11092BC050E946A0590935B
:10531000C7018093C601FF2009F4F1C510929204E1
:105320000E946D150E94030680919204882309F45F
:10533000E6C50E9476050E941217ECEBF1E0819120
:105340009191892B09F086C584EC91E08E179F0717
:10535000B1F7D3CFA895AFE9BFE01197F1F700C03F
:105360000000D7CEF110E5CF8091C6019091C70122
:105370000E944F05069708F4C2C5D09292040E947D
:105380007605D7CF2817390709F0DCC50E94DF273B
:105390008091820490918304892B09F43EC040914E
:1053A0007704509178046091790470917A042FB752
:1053B000F8948091930490919404A0919504B091F5
:1053C00096042FBF841B950BA60BB70B409173045B
:1053D0005091740460917504709176048417950758
:1053E000A607B707D0F080918204909183040E94B1
:1053F000490E109283041092820410927704109246
:1054000078041092790410927A0410927304109226
:1054100074041092750410927604E0908904F09060
:105420008A04E114F10419F18091AE019091AF0169
:105430000E944F055C0189E0D3011D928A95E9F72E
:10544000B301C7010E94A5128A159B0580F48091C3
:105450008904BEE08B9FC0011124FC01E251FE4F84
:10546000208122FD04C087519E4F0E942F0B809106
:105470001401882301F180917104909172040097C6
:10548000D1F00E944F052091A7033091A80328175F
:10549000390788F490916F0480917004981709F48B
:1054A000C2C00E94D2231092A8031092A7031092A8
:1054B00072041092710480919A0380FF1EC0809143
:1054C000130182FF1AC00E946A052091A303309144
:1054D000A403AC01421B530B209111013091120126
:1054E0004217530750F020EB31E041E0BC018091BE
:1054F000A5039091A6030E94EE0E86E0EFECF1E08A
:10550000D80101900D928A95E1F71092D101109285
:10551000D2011092D3011092D4018B819C81892BEE
:1055200091F08091CD019091CE010E944F05AC0188
:105530009091C801992309F47FC080910F018417CD
:10554000150608F487C08D819E81892B91F080918A
:10555000CB019091CC010E944F05AC019091C90103
:10556000992309F4B6C080910B018417150608F43D
:10557000BEC046E050E0B8018FEC91E00E94573089
:10558000892B61F48091D1019091D201892B909166
:10559000D301892B9091D401892B11F00E948D07A2
:1055A00086E0F801AFECB1E001900D928A95E1F749
:1055B0000E9403069091B901891721F08093B901E7
:1055C0000E945E050E94E7110E94601080914305D1
:1055D000882309F492CE8091AD0584FF8ECE809110
:1055E0003905803209F089CEE090C401F090C50100
:1055F00080911905E114F10409F4B8C08E3F09F057
:10560000FFC080911A05833020F08550833008F068
:10561000F7C0E0911A05EE3008F0F2C0F0E0EB5E62
:10562000FE4C0C940A300E947A231092720410925D
:1056300071040E94AF063FCF20911001EAE02E9F37
:10564000900111242417350708F07DCF9F5F9093B8
:10565000C80102C09F3FD1F7FB80FF2059F00E9494
:10566000ED079FEF1F140CF491E0899F802D11240A
:105670008093D101FC80FF2059F00E94ED079FEF3D
:105680001F140CF491E0899F802D11248093D20186
:105690003091D101332309F456CF2091D201222336
:1056A00009F451CF45EB3403C0011124992359F07B
:1056B0009093D10155EB250390011124332331F050
:1056C0003093D20140CFD092D101F4CFD092D20109
:1056D0003ACF20910C018AE0289F900111242417D1
:1056E000350708F046CF9F5F9093C90102C09F3FE6
:1056F000D1F7FD80FF2059F00E94B4079FEF1F14DF
:105700000CF491E0899F802D11248093D301FE80B9
:10571000FF2059F00E94B4079FEF1F140CF491E092
:10572000899F802D11248093D4013091D30133239C
:1057300009F41FCF2091D401222309F41ACF45EB9D
:105740003403C0011124992359F09093D30155EBF0
:10575000250390011124332331F03093D40109CF74
:10576000D092D301F4CFD092D40103CF8D3009F47D
:10577000B6C0B8F4843009F48FC040F4823059F1D7
:1057800008F076C0813009F18FEF8CC3863009F4C0
:10579000A3C008F491C08C30B9F780E180931A055A
:1057A0002FC0813109F405C140F48F3009F4CDC018
:1057B00008F499C00E94421223C0833109F42CC11D
:1057C00008F4F9C08E3F01F724CF10921A0589E042
:1057D00080931B0515C080911A05823009F482C39D
:1057E000833099F0813081F60E945E050E9410306E
:1057F00060931B0570931C0580931D0590931E05F7
:1058000089E1E82E85E0F82E02C380911501909180
:105810001601892BA9F38091BC019091BD019827B5
:105820008927982790931C0580931B058091BE01C2
:105830009091BF0198278927982790931E05809300
:105840001D058091C0019091C10198278927982753
:105850009093200580931F058091C2019091C30110
:105860009827892798279093220580932105C8CFF0
:1058700080911A05823009F087CF60911B057091E5
:105880001C0580911D0590911E050E94103088E234
:1058900090E00E94A230B4CF40911C0560911B059E
:1058A00080911A050E942913982789279827909399
:1058B0001E0580931D05A4CF20911D0530911E0566
:1058C00032272327322740911C0560911B058091C8
:1058D0001A050E94521294CF0E94E61591CFD092E1
:1058E0001A058BE575CFE0901C05F12C8DE1E816CB
:1058F000F10408F085CFA0901A05B0901B05BA24DA
:10590000AB24BA24F9E18F2EF5E09F2ED701A75ED4
:10591000BA4F7D01C5018B559D4FE814F90409F478
:105920006FCFBBE5AB16B1E0BB0658F40E948430E4
:10593000F4018483BFEFAB1ABB0AEFEF8E1A9E0A05
:10594000E9CFD40114961C92F5CF80911501909166
:105950001601892B09F454CFA0901C05B12CFDE150
:10596000AF16B10408F04CCFE0901A05F0901B057B
:10597000FE24EF24FE24E9E18E2EE5E09E2EAE0CFF
:10598000BF1CC7018B559D4FEA14FB0409F438CFA7
:105990002BE5E21621E0F20628F4D40114966C916E
:1059A0000E94A230BFEF8B1A9B0AEFEFEE1AFE0A9D
:1059B000E8CF84E0F3CEE0901C05F12CFDE1EF167A
:1059C000F10408F01DCFA0901A05B0901B05BA2471
:1059D000AB24BA2479E1872E75E0972EA701475EA4
:1059E0005A4F7A01C5018996E814F90409F408CFE1
:1059F00050E4A51651E0B50660F40E948430D4014D
:105A000014968C93FFEFAF1ABF0A2FEF821A920AF7
:105A1000E9CFF4011482F6CFA0901C05B12C4DE122
:105A2000A416B10408F0ECCEE0901A05F0901B0526
:105A3000FE24EF24FE2450E4E51651E0F50608F0BC
:105A4000DFCE80E491E08E199F098A159B0508F44A
:105A5000D7CE69E1862E65E0962EAE0CBF1CC7013D
:105A60008996AE14BF0409F4CBCEA0E4EA16A1E0F7
:105A7000FA0620F4F40164810E94A230FFEF8F1A2D
:105A80009F0A2FEFE21AF20AEACF88E0E9E1F1E09B
:105A9000D80101900D928A95E1F7E9E1F5E080E205
:105AA000DF011D928A95E9F786E08093190588E069
:105AB000F801ADE1B5E001900D928A95E1F7A0CE35
:105AC0008CE580931905D0921A0510921B0510924F
:105AD0001C0596CE80911C05682F70E0762F6627F6
