:100000000C94A3030C94DB030C94DB030C94DB0330
:100010000C94DB030C94DB030C94DB030C94DB03E8
:100020000C94DB030C94DB030C94D5260C949126E2
:100030000C94E0270C94DB030C94DB030C94DB039F
:100040000C94DB030C94DB030C94DB030C94DB03B8
:100050000C94DB030C94BC270C94DB030C94DB03A3
:100060000C94DB030C94DB030C94DB030C94DB0398
:100070000C94DB030C94DB030C94DB030C94DB0388
:100080000C94DB030C94DB030C94DB030C94DB0378
:100090000C94DB030C94DB030C94DB030C94DB0368
:1000A0000C94DB030C94DB030C94DB030501098047
:1000B000A101850319012AB700150126B700950192
:1000C00075108100C0050C0901A101850419012AE0
:1000D000A002150126A002950175108100C005013E
:1000E0000906A1018506050719E029E71500250184
:1000F0009508750181020507190029EF15002501F2
:1001000095F075018102050819012905950575010C
:100110009102950175039101C00660FF0961A1017B
:100120000962150026FF00952075088102096315F4
:100130000026FF00952075089102C005010906A15F
:1001400001050719E029E7150025019508750181CA
:10015000029501750881010507190029FF15002680
:10016000FF0095067508810005081901290515008D
:100170002501950575019102950175039101C0FD59
:10018000377A585A000004E6D6B446020021011618
:10019000000000742FE5A3E007C001F75D003D8873
:1001A00089C65436C3174FE4E6B65ABBBC73B41BBA
:1001B00043B03B05914C7E7F3F22D15AF022532A17
:1001C00082FC2CA4F78927E8FD00DC483EDB30F9EF
:1001D00021E71BD15077F48F4DD056C40E4CB24F4F
:1001E0004FF72B4C7A64CDECB2B07820ACC7F43C1E
:1001F000CF5FAEAC9B1170D72729D775A950810F5F
:100200005E18C21E8855B144EF57EAD2B956B4F110
:10021000E403D62737B9A731EBDBB6990FAD54C04D
:10022000A8C551E132C811CB64642A8CA6B58003FD
:100230006B2E69C9C3BD3807D74D02AFF3CAC1F1F0
:100240008691CDE658D9665B8F4A36F74C2390A845
:100250005AA5F3426E860645EA32553AD39982741E
:10026000CE361DCE54847BD8D527FFA9719B4B1B5E
:10027000A3FA72625385F3159A89CE2A8740BBE0B0
:10028000136A04E3419D1B0098159DC887F7D57537
:10029000F00A5BE4F0E233CF9D0C4119C3AD252E8B
:1002A0002C58761C7135EACEBDDE6EE3DF163F4E6C
:1002B0006214DEADDAE9699F8243DA278D798EFC1C
:1002C000593A829D55268A54CFC6D111DED137774F
:1002D0009926274083A296B283ACDC8C85E508CAB8
:1002E000A387C32D9FAB44F675AC12E9F0E929F959
:1002F00029EEABF5BCAD7413A346EBA3C98D3799BA
:100300002D8B21B77160A85473D368D32194A3AF08
:10031000BACC7D0549427C3D76381005D7E1922F55
:10032000AAAFA236612D710FDE885AF707AF9BD4B2
:10033000DD90208DA433A7E63575C1696B9E67E813
:10034000132087D6D76F0E1C3B0B5CFB8FE00E3A59
:10035000A6723A602178F3A87C29E00D965F14D646
:100360008D1A3B28DC4D3265918DB65D372D94C1D9
:1003700062318E5161C0B4CF2CA3C8B44A9530B558
:10038000850C79835552F90B1A11FD5EDD4859C869
:100390002D8DBF35B40000E6907A855D5F71FD005C
:1003A000019304C10F0000AED88A68B1C467FB0294
:1003B0000000000004595A01000100D903050EEAAB
:1003C0000D000002000200D503050EEA0D00000337
:1003D000000100DA03050EEA0D000004000200BF70
:1003E00003050EEA0D670705000100DB03050EEAB1
:1003F0000D000006000200C103050EEA0D00000713
:10040000000200D703050EEA0D000008000100DC21
:1004100003050EEA0D000012000200DD03050EEADE
:100420000D000013000200DF03050EEA0D000014AA
:10043000000100E103050EEA0D00001500000000B8
:1004400000ED061D14000014001A00080015001726
:10045000001C0018000C0012001300040016000716
:100460000009000A000B000D000E000F0028001DFF
:10047000221B0006001900050011001000000052A8
:10048000000000E000E20000002C000000E7002176
:1004900052500051004F001E001F0020002100227A
:1004A00000230024002500260027002B0001000166
:1004B0000001002D002E002A002F00300031000125
:1004C000000100010001000100330034000000E5DC
:1004D00000000001000100000001000000225201A4
:1004E0000036003700380029003A003B003C003D50
:1004F000003E003F004000410042000100010001B9
:10050000000100010001000100430044004500011A
:1005100000010001000100010001000100000001D4
:1005200000000001000100000001000000010001C6
:1005300000010001000100000000000000000000B8
:1005400000000000000000000000000000000000AB
:10055000000000000000000000000000000000009B
:10056000000000000000000000000000000000008B
:10057000000000000000000000000000000000007B
:100580000000000000000001000100010001000166
:100590000001000100010001000100010001000153
:1005A0000001000100010001000100010001000143
:1005B0000001000100010001000100010000000134
:1005C0000000000100010000000100000001000126
:1005D0000001000100010009025B00030100A0FA14
:1005E0000904000001030101000921110100012299
:1005F000440007058103080001090401000203000B
:1006000000000921110100012222000705820320B8
:100610000001070503032000010904020001030093
:100620000000092111010001226D0007058403204B
:10063000000112010002000000084C4A0000000105
:10064000010203011C037600690061006C003A009E
:10065000660036003400630032006200330063003D
:1006600000001C0354004B004C00460052004C009C
:100670004E0052004C004D004C0041004F00000065
:1006800010035A00690063006F0064006900610094
:100690000000040309040000000000000000000046
:1006A000000000000000000000000000000000004A
:1006B000000000000000000000007E0F00D4FFFFDB
:1006C000FFC70000007800000000000000002A2B97
:1006D00028000000000000000000000000000000F2
:1006E0000029000000002C1E34202122243426275B
:1006F000252E362D3738271E1F202122232425267C
:100700003333362E37381F0405060708090A0B0C49
:100710000D0E0F101112131415161718191A1B1C91
:100720001D2F3130232D350405060708090A0B0C4F
:100730000D0E0F101112131415161718191A1B1C71
:100740001D2F3130354C11241FBECFEFDAE0DEBF54
:10075000CDBF04B603FE18C08091350590913605D3
:10076000A0913705B09138058730904BA740B04B2A
:1007700059F41092350510923605109237051092F3
:100780003805E0E0F8E3099511E0A0E0B1E0E2EC23
:10079000FEE502C005900D92A437B107D9F725E018
:1007A000A4E7B1E001C01D92A533B207E1F70E94B2
:1007B00007280C94342F0C940000482F2091330507
:1007C0009091EA0459E0291302C080E0089530E0D6
:1007D000529FF001539FF00D1124E551FB4F818191
:1007E000681306C08081481303C085818111EECF54
:1007F0002F5F3F4F2770E7CFE8EDF0E080818E7FDD
:1008000080831092E2001092DA001092E100A0EED4
:10081000B0E08C9181608C9380818F77808319BC4C
:10082000A7EDB0E08C918E7F8C9380818F7E80834A
:100830001092D50408952091E4003091E50095E6EA
:10084000A9012091EC00822F817020FF06C08091C9
:10085000E80080FF06C080E008952091E80022FDB6
:100860001AC08091E004882389F0853089F0809156
:10087000EB0085FD0FC02091E4003091E5004217A8
:100880005307F9F29150E1F684E0089582E008956B
:1008900083E0089581E008958091E20487FF13C00A
:1008A0008091E80082FF06C08091E8008B778093FA
:1008B000E80004C08091E0048111F2CF0895809196
:1008C000E0048823D9F38091E80080FFF8CF80917D
:1008D000E8008E77ECCF982F9093E900242F762FA5
:1008E00050E0891731F07091EC002091ED005091AB
:1008F000F00021FD07C09F5F973071F78093E900FA
:1009000081E008953091EB003E7F3093EB00309111
:10091000ED003D7F3093ED003091EB00316030937E
:10092000EB007093EC002093ED005093F0002091C9
:10093000EE0027FDE0CF80E00895B0E0A0E0E3EA1C
:10094000F4E00C94772EC8EDD0E088818F7E888308
:10095000E7EDF0E080818160808384E082BF81E008
:100960008093D50488818E7F888302EE10E0F801A1
:1009700010821092DA0081EEC82ED12CF60110827E
:1009800088818F77888388818068888388818F7D3C
:10099000888319BC1092E0041092E1041092DF04E5
:1009A0001092DE0490EEE92EF12CF70180818B7F0E
:1009B000808388818160888342E060E080E00E94DB
:1009C0006B04F60180818E7F8083F80180818160D5
:1009D0008083808188608083F70180818E7F80831F
:1009E000888180618883CDB7DEB7E8E00C94932ED0
:1009F000FC018091E8049091E90486179707A0F024
:100A00006115710529F49091E8009E779093E800B4
:100A100090E06115710551F4911108C08091E800D2
:100A200082FF34C080E00895BC01F2CF8091E004E1
:100A30008823C1F18530C1F18091E80083FD30C089
:100A40008091E80082FDEACF8091E80080FFE1CF4D
:100A50008091F3002091F200382F6115710519F093
:100A60002830310558F091E02830310509F090E048
:100A70002091E8002E772093E800CBCF81918093DE
:100A8000F100615071092F5F3F4FE7CF8091E00483
:100A9000882341F0853041F08091E80083FFBECF8C
:100AA00081E0089582E0089583E0089508959C010F
:100AB0004FB7F8948091D1049091D204A091D304BF
:100AC000B091D4044FBF821B930B08952FB7F894B5
:100AD0006091D1047091D2048091D3049091D40498
:100AE0002FBF08952FB7F8948091D1049091D2042C
:100AF000A091D304B091D4042FBF08958091120126
:100B00000895909113019130D1F49091CE0497FF04
:100B100016C0E82FE695E695E695EE31E0F4F0E0B4
:100B2000E258FE4F282F277081E090E001C0880F27
:100B30002A95EAF780959281892382830895E8E7D0
:100B4000F1E09191891303C0DF0111971C9291E0AC
:100B5000EE37F907B1F70895909113019130C1F480
:100B60009091CE0497FF14C0E82FE695E695E695A0
:100B7000EE31F8F4F0E0E258FE4F877021E030E00B
:100B800001C0220F8A95EAF78281822B8283089521
:100B9000A8E7B1E0EFEF90E02D91821751F0EF3F21
:100BA00019F4211101C0E92F9F5F9630A9F7EF3F9B
:100BB00009F408950E2E000CFF0BEA58FE4FE6CF05
:100BC000A3E0B0E0E6EEF5E00C947D2E2091CC049D
:100BD0003091CD0428173907A1F09093CD0480936C
:100BE000CC04E091CA04F091CB04309751F024E09A
:100BF00029839B838A830084F185E02DCE010196B1
:100C000009952396E2E00C94992EA3E0B0E0EBE086
:100C1000F6E00C947D2E2091C8043091C904281769
:100C20003907A1F09093C9048093C804E091CA04E5
:100C3000F091CB04309751F023E029839B838A8382
:100C40000084F185E02DCE01019609952396E2E01E
:100C50000C94992EE091CA04F091CB04309729F0BE
:100C60000190F081E02D0995089580E008954115E7
:100C7000510511F0FA0109950895CF93DF93EC0126
:100C80004091BB045091BC046091BD047091BE04BE
:100C90002FB7F8948091D1049091D204A091D304FD
:100CA000B091D4042FBF841B950BA60BB70B843FC8
:100CB0009140A105B10518F58091BB049091BC0449
:100CC000A091BD04B091BE048093B7049093B80482
:100CD000A093B904B093BA0484EF91E0A0E0B0E02F
:100CE0008093B3049093B404A093B504B093B60476
:100CF000D093C304C093C204DF91CF9108950E94A2
:100D000066056093B7047093B8048093B904909318
:100D1000BA0482E390E0A0E0B0E0E2CFFC0184817D
:100D2000862351F492819923B9F06923808583FF4A
:100D300005C081E061110FC080E00895892F8F7098
:100D400092959F70982B862F8F7062956F70682B8D
:100D500081E09613F1CF089581E0FDCFDC01609131
:100D6000AF048091B004962F891301C00895292FF4
:100D700030E0F901EE0FFF1FE955FB4F4081518133
:100D80004A175B07A1F487E08A9FA0018B9F500D53
:100D9000112446515C4F81E0FA0184839613E6CF1B
:100DA0002F5F3F4F237033272093AF0408952F5FA9
:100DB0003F4F922F9370D8CF1092E8031092E70321
:100DC000EAEEF3E08581811102C014821682379623
:100DD00084E0EE33F807B1F70895B0E0A0E0E3EF68
:100DE000F6E00C94752E8FEF9FEF4430510508F418
:100DF00069C04091CE0441FB882780F990E0880FBC
:100E0000991F42FB002700F910E0000F111F000F8F
:100E1000111F802B912B40FBCC24C0F8D12C8C29A6
:100E20009D2943FB222720F9C22FE0E0DE2F53E06B
:100E3000CC0FDD1F5A95E1F78C2B9D2B44FBAA2785
:100E4000A0F9B0E0E4E0AA0FBB1FEA95E1F78A2B16
:100E50009B2B45FBEE27E0F9F0E0A5E0EE0FFF1F2E
:100E6000AA95E1F78E2B9F2B46FB222720F930E035
:100E7000B6E0220F331FBA95E1F7822B932B47FB85
:100E8000222720F930E03695322F222737952795F3
:100E9000822B932B2091CF04322F3170F32EE82E2A
:100EA000F92A26952170B22EBB0CA82EBF28C501A9
:100EB000BB0CAA0BBB0BFB0180839183A283B38382
:100EC00090E080E0CDB7DEB7EAE00C94912E8091FF
:100ED000BF039091C00390930C0180930B01089580
:100EE000EDE2F2E090E080E062ED75E249EF55E27C
:100EF00028E435E2778366835187408733872287EA
:100F000097878687019670968830910599F708959E
:100F100081152CE7920741F420910F0130911001C7
:100F2000232B11F490E080E0089580E00895F89478
:100F3000E82FE295EF70F0E031A1282F2F7081E0CB
:100F400090E001C0880F2A95EAF7982F9095932397
:100F500091A392A1892B82A3789408959091CE04B5
:100F600092FF10C041E0282F2471243009F040E0A6
:100F700031E0282F2871283009F030E0431711F0B4
:100F80002CE0822793FF10C041E0282F24712431E8
:100F900009F040E031E0282F2871283109F030E0D5
:100FA000431711F02CE082273091CF0430FF10C09E
:100FB00051E0282F2171213009F050E041E0282F25
:100FC0002871283009F040E0541711F029E08227F9
:100FD00031FF10C041E0282F2171213109F040E09C
:100FE00031E0282F2871283109F030E0431711F043
:100FF00029E0822794FD877E089582389105B9F112
:10100000B0F48133910509F47DC048F4893291052B
:1010100009F46DC08A32910509F47BC008958533C7
:10102000910509F45FC08933910509F10895833E64
:101030009105D9F138F4803E910529F1823E910560
:1010400079F10895863E9105D9F1873E910509F41D
:101050003EC0843E910541F52091CF0421FF24C07C
:101060008091CE0484FD19C087EE90E00895209110
:10107000CE04237009F05AC02091CF0423FF14C07E
:1010800089E290E008952091CE0420FD38C030918F
:10109000CF0430FF09C024FF43C090E080E00895F2
:1010A0002091CE0422FDF7CF08952091CE0422FD99
:1010B0003AC03091CF0430FD39C024FFF5CFEDCFD9
:1010C0002091CE0423FFF0CF24FDE7CFCDCF209198
:1010D000CE0423FD2EC03091CF0431FFEECF84EE3D
:1010E00090E008952091CE0425FFDECFC9CF209156
:1010F000CE0425FD21C02091CF0423FFD5CF89E365
:1011000090E0D2CF2091CE0426FFCECF8AE290E0AD
:1011100008952091CE0426FFC7CF81E390E0089583
:1011200083EE90E0089582EE90E0089580EE90E0E6
:10113000089586EE90E0089585E390E008951F936A
:10114000CF93DF930E94FD07EC01C11580E5D8071E
:10115000F0F5C11580E4D80708F09CC0C03ED10569
:1011600020F5CD3CD10508F082C0C83AD10578F40D
:10117000C53AD10508F073C0C130D10519F12097E7
:1011800009F1C430D105F0F4D0E0C0E01BC0C33C8D
:10119000D105D0F7C85AD0E0CC0FDD1FC05EDE4FBE
:1011A0000990D881C02DD4640DC0C11580E2D80744
:1011B00008F0D1C0C11581E0D80708F05AC0C83E78
:1011C000D10510F7CE01DF91CF911F910895C03660
:1011D00082E5D80718F5C03482E5D80708F06BC05F
:1011E000C03282E5D80708F05FC0C11582E5D80794
:1011F00008F497C02C2F2695269580E2289F900111
:1012000011248C2F8370C1E0D0E002C0CC0FDD1F11
:101210008A95E2F7C22BD32BDD68D4CFC03A82E5A2
:10122000D80760F4C03882E5D80708F459C0CF71F8
:10123000D0E0DC2FCC27C46FD06AC4CFC03C82E59D
:10124000D80708F462C0C03E82E5D80708F09CCFFA
:10125000DC2FCC27CC27DF71C06FD06AB3CFC55A43
:10126000D0E0C35EDE4FC881D0E0D064ABCFD065A4
:10127000A9CF8D2F0E94AE07182FCE0199270E946B
:10128000FD07C12FD0E0DC2FCC27CC27DF71C82B86
:10129000D92B98CFCE0199270E94FD07CC27DF706C
:1012A000C82BD92BD06A8ECFCF71D0E0DC2FCC27C2
:1012B000C16FD06A87CF2C2F26952695277080E2A4
:1012C000289F900111248C2F8370C1E0D0E002C0D0
:1012D000CC0FDD1F8A95E2F7C22BD32BDC6872CFCF
:1012E0002C2F26952695277080E2289F90011124A7
:1012F0008C2F8370C1E0D0E002C0CC0FDD1F8A9537
:10130000E2F7C22BD32BDA685DCF8C2F8F710E944E
:10131000AE07C82FD0E0DC2FCC27CC27DF71D062FE
:1013200051CF8C2F8F710E94AE0755E0D695C7958F
:101330005A95E1F7CF70D0E0DC2FCC27282F30E092
:1013400084FF05C044E0220F331F4A95E1F7C22B0A
:10135000D32BD06937CF8D2F8F710E94AE07182FF6
:10136000CE0199270E94FD07C12FD0E0DC2FCC27AA
:10137000CC27DF71C82BD92BD2CF8091E8018823ED
:1013800031F01092E8011092E7011092E601089501
:10139000CF93C82F8091CF0482FF0CC08091E801C9
:1013A0008C1741F00E9472059093E7018093E6014B
:1013B000C093E801CF9108959091E801292F282347
:1013C00061F0809589238093E801882339F00E9499
:1013D00072059093E7018093E601089590E080E024
:1013E000F8CF809590913405982390933405089513
:1013F000809590919E03982390939E0308959091D9
:101400009E03892B80939E0308951092BD01109234
:10141000BC011092BB0108958091C1039091C20359
:10142000892B89F00E9472052091E6013091E70135
:10143000AC01421B530B81E02091C1033091C203E8
:101440004217530708F480E081700895CF9380918C
:101450009E03C0913405C82B8091E8018823F9F0E0
:101460008091C1039091C203892B29F00E940C0A3C
:1014700081110E94BD098091E801C82B8091130160
:101480008130B1F48091CE0487FF12C08EE120E854
:1014900031E090E0815080F491110E94BD0980916B
:1014A000BF0480958C239091C004892BCF9108951F
:1014B00086E028E731E0EDCFF90141919F01442317
:1014C00049F39F5FE7CF9091BA01292F282321F09C
:1014D000809589238093BA01089580913305909176
:1014E000EA04981301C008958F5F8770FACF292FFF
:1014F000943078F58A3068F590E03AE0239F800DCB
:10150000911D1124682F677023E0969587952A9581
:10151000E1F7FC01EE0FFF1FE80FF91FEE55FE4F3C
:1015200050E040E080E0219130E0062E02C0369588
:1015300027950A94E2F721703327042E01C0220F69
:101540000A94EAF7822B4F5F5F4F4330510559F7FA
:10155000089580E00895292F943098F58A3088F511
:1015600090E03AE0239F800D911D1124282F2770D1
:1015700041E001C0440F2A95EAF723E0969587954C
:101580002A95E1F7FC01EE0FFF1FE80FF91FEE555A
:10159000FE4F30E020E070E05191DF011197CB0168
:1015A000022E02C0969587950A94E2F78170819584
:1015B0008527842385278C932F5F3F4F2330310568
:1015C00059F708958093F70108959091F70121E06C
:1015D00030E0F90101C0EE0F8A95EAF7D90102C0A7
:1015E000AA0FBB1F6A95E2F7EA2B01C0220F4A95AA
:1015F000EAF7892F8E23E81305C0292B822F0E943A
:10160000E20A089520952923F9CF21E030E001C0B6
:10161000220F8A95EAF720958091F70182230E9494
:10162000E20A08959091BD01809589238093BD01C0
:10163000282F277069F4891759F09091CF0492FFF1
:1016400007C08695869586950E94050B0E94050A1F
:10165000089521E030E001C0220F8A95EAF78091D9
:10166000F701822B0E94E20A08959091CF0492FF25
:1016700010C098E0899F90011124622B6093BD01F6
:101680000E94290B0E9472059093BC018093BB01BC
:1016900008950E94290B08958093F601089592956C
:1016A0009F70963091F058F4925F9F70923058F48A
:1016B000803F19F030F4883E30F481E008959A5F5D
:1016C000F4CF843FD1F380E00895883EB0F3813FAA
:1016D000D1F7F3CF9C013A9521153F4150F5FC011C
:1016E000EE27F170BC0166277270AC01442754707C
:1016F0009C012227387094FF0EC080E1EF2B09F483
:1017000080E0672B09F08062452B09F08064232B71
:1017100089F08068089581E0EF2B09F480E0672B61
:1017200009F08260452B09F08460232B19F0886052
:10173000089580E008950F931F93CF93DF938B015B
:10174000EA019091E004943061F58093E9008FEF15
:101750009091E800815095FD06C095ED9A95F1F7BE
:1017600000008111F5CF8091E80085FF1AC00E942A
:101770001B04811111C08091E80085FD06C0809195
:10178000E8008E778093E800F2CFF80181918F0115
:101790008093F100219779F78091E8008E7780930C
:1017A000E800DF91CF911F910F91089543E050E041
:1017B000BC0184E00E949B0B089540E250E0BC0114
:1017C00084E00E949B0B0895CF93DF93EC0148E0E7
:1017D00050E0BC0181E00E949B0B88E0FE01A6ED79
:1017E000B4E001900D928A95E1F7DF91CF910895D1
:1017F00081E08093E00080E28093D8001092C900DD
:101800008FE19EE40197F1F700C0000087E090EBC4
:10181000DC018093350590933605A0933705B0938E
:10182000380588E19CE00FB6F894A8958093600095
:101830000FBE90936000FFCF019708F40895EFE981
:10184000FFE03197F1F700C00000F6CFCF93C82F2B
:101850006FEF811160EF84E290E00E94F82E6FEF4D
:10186000C11162EF85E290E00E94F82E6FEFC11186
:101870006FEC86E290E00E94F82ECF910895CF930E
:10188000DF93C4E4D3E060E0CE010E94F82E2196FD
:10189000C11584E0D807B9F7DF91CF9108951F9360
:1018A000CF93DF93122F8630E0F46430D0F44A30C7
:1018B000C0F4C42FD0E0CC0FDD1F94E1699FC00DB0
:1018C000D11D112490E5899FC00DD11D1124632FD6
:1018D000CE0188960E94F82E612FCE0189960E9433
:1018E000F82EDF91CF911F91089584E290E00E943D
:1018F000DA2E803F89F485E290E00E94DA2E823F62
:1019000059F486E290E00E94DA2E91E08F3C09F0D3
:1019100090E0892F8170089580E0FCCF0F931F9392
:10192000CF93DF93863030F5643020F54A3010F5E0
:10193000C42FD0E0CC0FDD1F24E1629FC00DD11D6C
:10194000112430E5839FC00DD11D1124CE0188964E
:101950000E94DA2E082F10E0102F0027CE01899662
:101960000E94DA2E9801282BC901DF91CF911F9197
:101970000F91089590E080E0F8CF462F2091170254
:1019800030911802232B99F4703F39F4603F79F4B9
:101990008091190290911A020895743040F46A30CF
:1019A00030F4863020F4672F0E948E0C089590E06A
:1019B00080E00895CF92DF92FF920F931F93CF9311
:1019C000DF936C010091F7018091F601082BC5E0CF
:1019D000D0E010E0FC2EC8010C2E02C09595879532
:1019E0000A94E2F780FD0CC02197A0F7F12C8F2D0F
:1019F000DF91CF911F910F91FF90DF90CF900895CD
:101A0000B6018C2F0E94BD0C0E949F08019761F3C4
:101A1000EECFCF93DF93EC010E94DA0CBE010E945F
:101A2000BD0C0E949F08DF91CF910895FC01848135
:101A3000882371F087819085009729F00E949F0884
:101A40000E944F0B0895808191810E94090DF8CF6B
:101A500080E00895A6E0B0E0E0E3FDE00C947C2E89
:101A600049835A8349815A819923A1F0222391F015
:101A7000CA010E94DA0C182F682F89819A810E946E
:101A8000AB0A69817A81812F0E94BD0C2696E3E022
:101A90000C94982ECA010E94770A182FF2CFFC01ED
:101AA000262F87819085009741F440815181628182
:101AB0007381848195810E942A0D08950F931F934D
:101AC000CF93DF930FEB13E0C8E0D2E0CE010E948A
:101AD000DA2EF80161918F01681719F0CE010E948A
:101AE000F82E2196CC32F2E0DF0781F7DF91CF911B
:101AF0001F910F9108950F931F93CF93DF930FEBD7
:101B000013E0C8E0D2E0CE010E94DA2EF801819302
:101B10008F012196CC32F2E0DF07A9F7C1ECD3E0C8
:101B2000FE0185919491009711F0FC0109952C9686
:101B3000F4E0C135DF07A1F7DF91CF911F910F913D
:101B400008959B01883070F49AE0899FB0011124B8
:101B5000645D7D4F4AE050E0C9010E94CA2E90E0CA
:101B600080E008958FEF9FEF0895AAE0B0E0EBEBDF
:101B7000FDE00C947D2E9C0137552F3F310509F077
:101B800068F4BE016F5F7F4F0E94A10D892B31F475
:101B900089859A852A96E2E00C94992E8091D70344
:101BA0009091D803F7CF9091CF0492FB222720F990
:101BB000281779F080FB92F99093CF046091CE04BE
:101BC0007091CF0484E090E00E94162F82E00E9482
:101BD000120B0895DA019C012E5F3F4FF9014591E8
:101BE0005491F90125913491A217B30758F0FC01E3
:101BF0003496859194910E94BA2E0E945E0D90E0D9
:101C000080E008958FEF9FEF0895DB01FC0132968D
:101C1000259134914217530758F0FC013496659191
:101C20007491A901CD010E94BA2E90E080E0089540
:101C30008FEF9FEF0895AAE0B0E0E1E2FEE00C94A0
:101C4000752E06E213E084EFE82E82E0F82E97E08E
:101C5000B92E25E2C22E23E0D22EAA24A3944AE074
:101C600050E0B701CE0101960E94CA2EF8013896C5
:101C7000DF018B2D1D928A95E9F789819A81D80120
:101C800011969C938E938F8112968C9312978D81CF
:101C900013968C931397888514968C931497898543
:101CA00015968C9315978B819C8117969C938E9398
:101CB000169718961C9218978A8587FF3CC01E9627
:101CC0001C921E921D9780FF03C0D8011896AC92FB
:101CD00081FF04C0F80190859260908782FF07C061
:101CE000D80118969C911897946018969C9383FF3E
:101CF00004C0F80190859860908784FF07C0D801E0
:101D000018969C911897906118969C9385FF04C033
:101D1000F801808580628087FAE0EF0EF11C015F98
:101D20001F4F84E4E81683E0F80609F098CF2A965E
:101D3000EAE00C94912EF801D686C586C4CFAAE0BD
:101D4000B0E0E5EAFEE00C94772EEDEAF2E088E7F9
:101D5000DF011D928A95E9F7EAEEF3E084E5DF0101
:101D60001D928A95E9F78DEAC82E82E0D82E7F0170
:101D70000CE712E0F701D182C0824AE050E0B801DE
:101D8000CE0101960E94CA2E88E0FE013196D6014E
:101D900001900D928A95E1F789859A85D70113966E
:101DA0009C938E931297BAE0CB0ED11CE7E0EE0E17
:101DB000F11C065F1F4F043FF2E01F07D9F62A9679
:101DC000E8E00C94932EA8E0B0E0E9EEFEE00C947D
:101DD0006F2E8E010F5F1F4F88E0F80111928A95D8
:101DE000E9F796E5E92E91E0F92E68012AE5422E01
:101DF00021E0522E66246394712C44E6842E41E047
:101E0000942EF70181917F018F3F09F445C0F8942A
:101E1000E82FE295EF70F0E021A18F70A30102C0DE
:101E2000440F551F8A95E2F7CA01922F982B91A370
:101E300092A18095892382A3789400C0EAE5F1E01D
:101E400021E030E0B12CA12C41914F3F09F44BC06F
:101E5000A42FA295AF70B0E090968C9190E04F7057
:101E600002C0959587954A95E2F780FD3CC0C9016F
:101E7000A82AB92A220F331F8E169F0629F7F701C9
:101E8000319780818F3F11F00E94970750EA5A9551
:101E9000F1F7F601B182A082F2E0CF0ED11C4E1410
:101EA0005F0409F0AECF48E050E0B8018EEE91E05B
:101EB0000E94AD2E892BE1F088E0F801AEEEB1E092
:101EC00001900D928A95E1F781E08093ED010E94E7
:101ED00072059093EC018093EB0110E0812F28961E
:101EE000E0E10C948B2E90E080E0C2CF10E01FC0A8
:101EF0001091ED01112389F38091EB019091EC0198
:101F00000E945705059748F348E050E06EEE71E0F7
:101F10008FE092E00E94AD2E892B41F388E0EEEE37
:101F2000F1E0AFE0B2E001900D928A95E1F71092F6
:101F3000ED01D4CF80911301813059F58091CE0409
:101F400087FF27C00E94260A80937F0140E250E06D
:101F50006EEB71E08EE791E00E94AD2E892BC1F00F
:101F600080E2EEE7F1E0AEEBB1E001900D928A95F0
:101F7000E1F7E091CA04F091CB04309749F086E094
:101F800080937E010480F581E02D8EE791E0099534
:101F900008950E94260A8093760148E050E06EED95
:101FA00071E086E791E00E94AD2E892B89F388E0ED
:101FB000E6E7F1E0AEEDB1E001900D928A95E1F730
:101FC000E091CA04F091CB04309711F30280F381C1
:101FD000E02D86E791E0DBCFCF93DF93EC014A85DC
:101FE0005B856E857F850E9437068B810E94F10993
:101FF0008C810E94F8090E949A0F86E0FE011192DE
:102000008A95E9F7DF91CF910895CF93DF93EC01A3
:102010008D8181FD14C082608D83809134059B8108
:10202000892B809334058C810E94FF090E949A0FAE
:10203000488559856E857F85CE010E9437061092AE
:10204000C7041092C6048D8180FD03C0CE010E949A
:10205000EC0FDF91CF91089580910D01877F8093E0
:102060000D0182E00E94F10980910D0184FF06C0FC
:102070008F7E80930D0182E00E94FF0980910D0107
:1020800085FF06C08F7D80930D0180E20E94FF09CD
:102090000E949A0F089510929E038091130181303F
:1020A000C1F48091CE0487FF14C0E0E8F1E08EE136
:1020B000DF011D928A95E9F790E080E00E94050615
:1020C00090E080E00E94E005109234050E949A0F93
:1020D0000895E8E7F1E086E0EBCFAAE2B0E0E3E7BD
:1020E000F0E10C947C2E82EE94E02091F100DC0172
:1020F0002D93CD01B4E08A3E9B07B9F78091E304AC
:10210000833009F472C0B8F4813009F449C08230D8
:1021100009F4B7C08091E80083FFA2C28091E20475
:102120009091E3049A3008F09BC2E92FF0E0EA5C5A
:10213000F04D0C94602E8A3009F492C08B3009F473
:1021400071C0893039F78091E204813219F78091AA
:10215000E6049091E704009711F00297D9F6809178
:10216000E800877F8093E8008091E80082FF38C014
:102170009091F3008091F200029731F48091F10088
:10218000813011F0863021F48091F10080931201AA
:102190008091E8008B778093E8000E944C04BACFCE
:1021A0008091E204813A09F0B5CF8091E800877F01
:1021B0008093E8008091E6049091E704892B61F414
:1021C00068E086ED94E070E00E94F8048091E800F9
:1021D0008B778093E8009ECF60E090E080E0F3CFC3
:1021E0008091E0048111C0CF95CF8091E204813AC3
:1021F00009F090CF8091E6049091E704892B09F0D3
:1022000089CF8091E800877F8093E8008091E80083
:1022100080FFFCCF809113018093F1008091E80052
:102220008E77B9CF8091E204813209F073CF80912B
:10223000E6049091E704892B09F06CCF8091E800C7
:10224000877F8093E8000E944C0481E09091E40431
:10225000911101C080E0809313010E944B105ACF6E
:102260008091E204813209F055CF8091E800877FA8
:102270008093E8000E944C048091E5048093110152
:1022800049CF8091E204813A09F044CF8091E8007F
:10229000877F8093E8008091E80080FFFCCF8091E9
:1022A0001101BACF803899F0823809F0D9C18091F4
:1022B000E6048F70873008F0D3C18093E9008091E5
:1022C000EB0085FB882780F91092E90006C0809119
:1022D000DE049091DF04911182609091E800977F75
:1022E0009093E8008093F1001092F1008091E80053
:1022F0008E77B2C1882309F4A0C1823009F0B0C141
:102300008091E4048111A3C18091E6048F702FEFC6
:10231000280F263008F0A4C18093E9002091EB003B
:1023200020FF95C1933031F48091EB00806280935F
:10233000EB008DC19091EB0090619093EB0021E058
:1023400030E001C0220F8A95EAF72093EA0010924C
:10235000EA008091EB008860EACF811181C1109181
:10236000E4041F778091E3008078812B8093E30061
:102370008091E800877F8093E8000E944C04809160
:10238000E80080FFFCCF8091E30080688093E30049
:1023900082E0111183E08093E00462C180588230B2
:1023A00008F05EC12091E4043091E5042C3DE3E0A7
:1023B0003E07A1F583E08A838AE289834FB7F894C8
:1023C000DE01139620E03EE051E2E32FF0E050936F
:1023D0005700E49120FF03C0E295EF703F5FEF707C
:1023E0008E2F90E0EA30C0F0C7968D939D932F5FBB
:1023F000243159F74FBF8091E800877F8093E80030
:102400006AE270E0CE0101960E94F8048091E80033
:102410008B778093E80024C1C096E7CF8091E604D3
:102420009091E704432F55274330510509F44AC0E2
:1024300078F54130510509F485C08BE590E0E7ED72
:10244000F5E04230510509F00BC12091E800277FEB
:102450002093E8002091E8043091E9048217930763
:1024600008F49C0140E02115310509F070C04111CC
:102470006EC08091E80082FDC9CF8091E00488237E
:1024800029F2853019F28091E80083FFF2CFBECFA8
:102490004132510509F447C04232510509F0E0C00C
:1024A0008330910508F0DCC0FC01EE0FFF1FE959F5
:1024B000FE4F0190F081E02D8C599E4FDC018C91F4
:1024C00090E01DC0332721303105E9F02115310599
:1024D00079F022303105F9F02330310509F0C0C020
:1024E000E4E4F6E0E4918E2F90E0E4E4F6E007C047
:1024F000E2E9F6E0E4918E2F90E0E2E9F6E0009761
:1025000009F4AEC0A2CFE0E8F6E0E4918E2F90E0AF
:10251000E0E8F6E0F4CFE2E6F6E0E4918E2F90E01A
:10252000E2E6F6E0ECCF8330910508F099C0880F21
:10253000991FFC01E359FE4F0190F081E02D89E0E5
:1025400090E083CF82E190E0E2E3F6E07ECF8091FD
:10255000E004882309F45ACF853009F457CF8091DD
:10256000E80083FD53CF8091E80082FD82CF809107
:10257000E80080FF78CF9091F3008091F200211560
:10258000310519F08830910550F041E0089709F0C5
:1025900040E08091E8008E778093E80064CF44911A
:1025A0004093F1003196215031090196E8CF8038EF
:1025B00009F056C08091E800877F8093E800809101
:1025C000E1048093F10092CE81114AC01091E4049D
:1025D000123008F045C08091E800877F8093E800C2
:1025E0001093E1040E944C04112311F084E005C013
:1025F0008091E30087FDFACF81E08093E00442E020
:1026000061EC81E00E946B0442E261EC84E00E9494
:102610006B0442E261EC82E00E946B0442E260ECF7
:1026200083E00E946B048091E004843021F081E01B
:102630008093140115C082E0FBCF8091E4048130C7
:1026400079F481E0933009F080E08093DF04109208
:10265000E9008091E800877F8093E8000E944C04A5
:102660008091E80083FF0AC08091E800877F809313
:10267000E8008091EB0080628093EB00AA96E3E093
:102680000C94982EEFEBF3E0128E138E8FEA90E00D
:102690009183808385E0848F28E833E1338322832C
:1026A00022E330E0378B268B28EC30E0318F208F0F
:1026B000158E178E168E20E530E031A320A382A35D
:1026C0000E945E0D0E944B101092CF041092CE0417
:1026D000EFECF4E08081846080836091CE0470919F
:1026E000CF0484E090E00E94162F0E947B0D089595
:1026F000AEE1B0E0EEE7F3E10C94732EC0900F0171
:10270000D090100181E090E09093100180930F0130
:1027100097E4A92E94E0B92E912C7501812C1EC04E
:10272000402F85E021E030E0981641F0F801EE0FEF
:10273000FF1FEE0DFF1D859194919C01682D892D41
:102740000E944F0C0F5F1F4F0A30110549F7839409
:10275000E4E1EE0EF11CF4E08F1619F010E000E059
:10276000DFCF939480E5A80EB11CE6E09E12D5CF92
:102770000E9442131A8219821C821B821E821D82B1
:1027800018861F8288EC90E09A8789870CE212E015
:102790004AE050E0B801CE0101960E941C2F065F6E
:1027A0001F4F0C37F2E01F0799F77E018BE0E80E10
:1027B000F11C8AE0F70111928A95E9F74AE050E0AE
:1027C000B801C7010E941C2F065F1F4F043FF2E0B3
:1027D0001F07A1F77E0185E1E80EF11C8AE0F701F1
:1027E00011928A95E9F78FEF9FEF9A8F898F87E093
:1027F0008E8F4AE050E0B801C7010E941C2F065F8F
:102800001F4F0434F3E01F07A1F7D0921001C092CC
:102810000F016E96ECE00C948F2E80E00E94260C47
:1028200060E087E290E00E94F82E0E9478130E94F8
:102830003F0C81E00E94260C0895CF92DF92EF9228
:10284000FF928FEF9FEF4430510508F46CC0FB01FD
:10285000C080D180E280F3800E944B108091CE0432
:10286000C0FA80F9B701A601769567955795479507
:1028700040FB81F9B701A60122E07695679557954F
:1028800047952A95D1F740FB82F9B701A60133E0BD
:1028900076956795579547953A95D1F740FB83F91B
:1028A000B701A601E4E07695679557954795EA95B7
:1028B000D1F740FB84F9B701A601F5E0769567955D
:1028C00057954795FA95D1F740FB85F9B701A601D1
:1028D000A6E07695679557954795AA95D1F740FB61
:1028E00086F9B701A601B7E07695679557954795A4
:1028F000BA95D1F740FB87F98093CE048091CF043D
:10290000D0FA80F9D1FACC24C0F8C0FA81F98093CA
:10291000CF046091CE047091CF0484E090E00E94D7
:10292000162F90E080E0FF90EF90DF90CF90089519
:102930000E944B102FEF84E39CE021508040904098
:10294000E1F700C0000088E19CE00FB6F894A8957C
:10295000809360000FBE90936000FFCF882321F02A
:102960000E94F1090E949A0F0895882339F09091EE
:102970003405982B909334050E949A0F089588236C
:1029800021F00E94F8090E949A0F0895882321F0EF
:102990000E94FF090E949A0F0895882339F19CEF45
:1029A000980F913A28F40E9481050E949A0F089589
:1029B00090E2980F983050F4877091E001C0990F21
:1029C0008A95EAF7892F0E94F809EFCF9BE5980FC7
:1029D000933028F490E080E00E9405060895885A1C
:1029E0008B3120F490E080E00E94E0050895FF9292
:1029F0000F931F93CF93DF93F82E0091C40410918F
:102A0000C5040115110509F449C01092C3041092C0
:102A1000C2041092BF041092C004D8011696CD9142
:102A2000DC919E013A9521153F4108F4D07ED1E01A
:102A3000C11101C0D0E0D8011996ED91FC911A970F
:102A4000309731F01B966D917C9180E00995D823E9
:102A5000DD2339F08CEF8C0F813A30F58C2F0E94FA
:102A60008105FF2099F0E091C404F091C5048085B0
:102A700084FD0CC08091C104882341F08081918144
:102A80009C01215031092F333E47A0F00E949A0F3C
:102A90001092C5041092C4041092C104C801CDB7AD
:102AA000DEB7E5E00C94962E0E949A0F8C2F0E94C0
:102AB000CD14D7CF0E943D06E9CFCF93DF93EC0131
:102AC0000E94CD14CE010E946A0B9E01205E310946
:102AD0002830310510F0CD2B29F40E94BF14DF916E
:102AE000CF9108950E94AE14FACFCF93C82F8823B8
:102AF000B1F18CEF8C0F813AA0F5809113018130F8
:102B000001F58091CE0487FF1CC0EC2FE695E69579
:102B1000E695F0E0E258FE4F828190E04C2F47703E
:102B200021E030E002C0220F331F4A95E2F78223F2
:102B30009323892B79F08C2F0E9481050E949A0F94
:102B400009C0E8E7F1E08191C817A9F381E0EE3709
:102B5000F807C9F78C2F0E94AC050E949A0FCF91FD
:102B6000089580E28C0F883048F4C77081E001C07E
:102B7000880FCA95EAF70E94FF09EFCFEBE5EC0F4B
:102B8000E33040F4F0E0E35EFE4F808190E00E948D
:102B90000506E5CFC85ACB3110F7EC2FF0E0EE0F69
:102BA000FF1FE05EFE4F808191810E94E005D7CF3C
:102BB0001F93CF93DF93182FEB010E947515209779
:102BC00039F4812F0E94CD14DF91CF911F91089588
:102BD0008FE99FE00197F1F700C000002197EFCF48
:102BE0006091DF037091E003893321F06091DD0390
:102BF0007091DE030E94D8150895B0E0A0E0E3E0F4
:102C0000F6E10C94752EEC018AE0A82E288122238F
:102C100009F49EC0213009F043C08981813049F414
:102C20008E010E5F1F4F8A810E94F015E8012196E8
:102C3000EDCF823039F48E010E5F1F4F8A810E94E2
:102C40007515F4CF833039F48E010E5F1F4F8A81E2
:102C50000E94CD14EBCF843011F02196E8CF2A8169
:102C6000229690E080E0AE014F5F5F4F2053330B20
:102C70002A30310550F00097D1F2EFE9FFE03197AB
:102C8000F1F700C000000197F6CFA89EB001A99E01
:102C9000700D1124C901860F971F2981EA01E3CF26
:102CA000E22FF0E0EA53F94FB490822F8695869593
:102CB000869590E0FC01EA54F94FE4902770F12CDE
:102CC000022E02C0F594E7940A94E2F7F1E0EF22B5
:102CD000FF24FC01EA55F94FC490D12C022E02C00A
:102CE000D594C7940A94E2F731E0C322DD24FC01B5
:102CF000EA56F94F049110E002C0159507952A9500
:102D0000E2F701701127E114F10419F081EE0E943D
:102D10007515C114D10419F086EE0E94751570E086
:102D200060E08B2D0E94D815C114D10419F086EEF5
:102D30000E94CD14E114F10419F081EE0E94CD142B
:102D40000115110509F473CF8CE20E94F0156FCFC5
:102D5000CDB7DEB7EAE00C94912ECF93DF93EC0170
:102D60000E946A0B9E01205E31092830310510F067
:102D7000209741F40E94C6148C2F0E947515DF9194
:102D8000CF9108950E94B514F7CF662329F02091C2
:102D900034052260209334059C01305221153043C4
:102DA00008F499270E94AD160895B0E0A0E0EBED7D
:102DB000F6E10C94772E6C018B01E42E80910D01CD
:102DC00082FF87C0C091E503D091E603CC15DD05F5
:102DD00021F0C114D10409F07CC080910D018B7FDA
:102DE00080930D0181FD6EC08091E3039091E40317
:102DF000A801481B590B81E020910B0130910C0177
:102E00004217530708F480E08170F82E80910D017D
:102E1000F0FA81F980930D01FE0183E0F695E795C4
:102E20008A95E1F7EE71FF27E156FC4F2081318151
:102E3000AE014F70552781E090E002C0880F991FC6
:102E40004A95E2F7FF2009F43FC0822B932B918330
:102E5000808380919E0381FF08C080910D01806175
:102E600080930D0182E00E94F80980919E0385FF06
:102E700008C080910D01806280930D0180E20E9464
:102E8000F8096F2DCE010E94C516EE2031F0809119
:102E9000DA0385FF02C086FF30C08091DD03909188
:102EA000DE030E941C0C8091E5039091E6039C01D7
:102EB00030522115304308F499270E945D150E9475
:102EC0002C1017C081E0A0CF80959095822393238A
:102ED000BECFC601905281159043A0F4C601992738
:102EE0000E945D158091E5039091E6038C159D0588
:102EF00031F31093E4030093E303CDB7DEB7E8E0CA
:102F00000C94932EC601ECCFA8E0B0E0EAE8F7E11C
:102F10000C946D2E7C01DC0114968C91882309F4AD
:102F200065C161E0C7010E944F0D8C01F7018581E9
:102F3000882331F18091C6049091C704009701F174
:102F400008171907E9F0FC01FF27887F9927892BCB
:102F500009F069C0A4E0EE0FFF1FAA95E1F7E35D59
:102F6000FD4F85818460858311830083CF010E949A
:102F700005101092340561E0C7010E944F0D8C01CD
:102F8000D70115968C91882309F4BBC0C8019757C7
:102F90008038910508F0E8C0D02EBFE0B01708F4E3
:102FA00015C18FEF93E00E94DA2E81110FC104E466
:102FB00013E0D1103BC0F4E04F2E9E012F5F3F4F36
:102FC000390133243A94D301E42D1D92EA95E9F7AF
:102FD0006801FFEFCF1ADF0AC8010E94DA2E898349
:102FE000882309F4F3C08130D1F4580122E0A20E05
:102FF000B11CC6010E94DA2E582E8A83882309F458
:10300000E5C08FEF850D8330F8F4680133E0C30E1F
:10301000D11CC5010E94DA2E8B838823F1F1C301F4
:103020000E94FD153AC0F0E0E0E09BCF0115E4E01E
:103030001E0709F4CBC0C8010E94DA2E811101C01D
:10304000DA940F5F1F4FB5CF8BEF850D833068F596
:10305000480143E0840E911CC5010E94DA2E8B8347
:1030600064018823D1F0680154E0C50ED11CC4016D
:103070000E94DA2E8C83882381F08B819C818130A1
:10308000AFEF9A0710F0982F8827B6E05B1639F05B
:10309000E7E05E1639F00E94C125860194CF0E94B8
:1030A0009C25FBCF0E942325F8CFF4E065015F1239
:1030B000F4CFC5010E94DA2EB82E680124E0C20EBA
:1030C000D11CC80103960E94DA2EBB2009F47EC0F1
:1030D000882309F47BC0482F4150550B349EC00112
:1030E000359E900D1124AB2DA150BB0B8A0F9B1F59
:1030F000019798F2EFE9FFE03197F1F700C0000087
:10310000F7CF680127E5D21A3FEFC316D10409F0C3
:1031100058F563E272E08C2D0E94A10D892B21F5F8
:10312000C60174E0880F991F7A95E1F7FC01E35D11
:10313000FD4F22812130A1F52091230230912402FC
:10314000232B91F02091250230912602232B61F050
:1031500020912702309128024091290250912A02A1
:10316000242B352B232B21F1D70115965C9055206C
:1031700009F440C00E35BCE71B0729F10F35ECE719
:103180001E0741F00D35FCE71F07A1F580910001F6
:103190008823C9F01092000180E00E94F71416C045
:1031A000223011F72091270230912802232BE1F2DF
:1031B000FC01EE5CFD4F20812E7F2083835D9D4FBF
:1031C0000E940510D1CF81E0809300018091BD0164
:1031D000877061F0D70115968C91882339F0809122
:1031E000CF0482FF03C082E00E94120B2896E2E126
:1031F0000C94892E80910001882309F405C53801BB
:1032000020EE621A71084090E8018091BA01482AC4
:1032100080919E03482A38E06316710408F087C045
:1032200098012770332781E090E001C0880F2A952C
:10323000EAF7552009F478C0482AD7018D919C916E
:103240000E94770A21E030E0190102C0220C331CF1
:103250008A95E2F7E091C404F091C504FE83ED8302
:1032600020919E0130919F0138872F8366E2C62E00
:1032700063E0D62EB12CA12CB8E0AB16B10409F452
:1032800024C5411005C0D60112968C91811189C0C8
:10329000F601838190E082219321892B09F481C07A
:1032A0008085982F977009F487E0F8E06F16710415
:1032B00008F057C0552009F450C0869581708823C6
:1032C00009F46FC0D6018D909C900815190519F46A
:1032D000552009F466C0ED81FE81EC15FD0509F469
:1032E00060C0D6011D96ED91FC91309721F0808150
:1032F000882309F456C0642DC6010E948E068823D7
:1033000009F44FC00815190509F047C50115110545
:1033100009F448C5511048C5EF81F8858E169F06FF
:1033200009F03FC0512C40C58095482286CF5520DA
:1033300009F4B4C410939F0100939E010E94660596
:103340006093BB047093BC048093BD049093BE044F
:103350001092C3041092C20470CF82FB882780F9B8
:10336000AECF5520F1F08170AACF0E94CD1441C597
:103370000497813A910548F48C2D0E94AC055520A4
:1033800009F442C40E949A0F21CF0E949A0F8FE342
:103390009CE90197F1F700C000008C2D0E94751583
:1033A000EECF9FEFA91AB90AAFE0CA0ED11C64CFC5
:1033B000DC012D913C910217130709F01FC4511035
:1033C0001FC41092C10480E00E94F7141DC4902F06
:1033D000812F5FC4F9014485558566857785C901CC
:1033E0000E943706D60115968C9181FF82C4C601D2
:1033F0000E94EC0F8091C6049091C704081719072A
:1034000009F077C41092C7041092C60472C4909158
:103410000D01892F8E7F90FF816080930D010E94A6
:103420002C1092C480910D018E7FF7CF80910D01F9
:103430008F7E013E110531F0053E1105E9F48091C2
:103440000D018F7D80930D0180910D0180FF19C0CA
:10345000D70115968C910832110520F50E31110512
:1034600008F071C00430110578F5882351F01092EE
:10347000E6031092E50305C0C80190528115904300
:1034800018F7F70185810737FCE71F0709F4D0C05B
:1034900008372CE7120709F061C4882309F4D7C064
:1034A00082E0C9C00933110558F40D32110518F432
:1034B0000B321105D1F69091DA0392FDD6CF08C0F8
:1034C00004361105C1F3D1CF9091DA0394FDCDCF2D
:1034D000882309F4A6C08091E80190919E03892B6E
:1034E0008D7FB1F11092E6031092E5038091DA032B
:1034F00081FD2EC0F80143E0F695E7954A95E1F786
:10350000EE71FF27E156FC4F98012F70332781E0C1
:1035100090E002C0880F991F2A95E2F78095909558
:1035200020813181822393239183808360E0C801CD
:103530000E94C5168091E8018D7F0E94C80982E033
:103540000E94120B43CE9091DA0393FD8ECFC0CF31
:1035500089E0F701A3E0B2E001900D928A95E1F7CE
:1035600010920602109205028091E5039091E60305
:1035700008171907D1F52091DA0325FF36C03091DD
:103580000D0131FF02C026FF30C02091E3033091CE
:10359000E4035601A21AB30AB7010E94B50DA8169A
:1035A000B90618F580919E0381FF08C080910D0136
:1035B000806180930D0182E00E94F80980919E0352
:1035C00085FF08C080910D01806280930D0180E22B
:1035D0000E94F80960910D01669561708091E50384
:1035E0009091E6030E94C516F1CD8091E80190917B
:1035F0009E03982B20910D0191FB21F920930D0141
:103600008D7F0E94C8091093E6030093E503D092D2
:10361000E403C092E30380910D01846080930D0167
:103620008ECF970140E0B601C8010E94D516CECDDD
:10363000882349F081E00E94290B43E062E081E0A9
:103640000E94E50AC3CD81E00E94050BF6CF82E01F
:10365000FBCF882381F00330FCE71F0709F469C022
:1036600008F04CC001153CE7130709F455C00130C0
:103670001C4709F464C0F70187819085009709F41D
:103680006CC00E949F08182F092FF701B580C680D3
:10369000C2943FE0C3228091BD01877001F1AB2C41
:1036A000BB20F1F0892F807F803461F080E2810FB0
:1036B0008830A8F0892F807E803221F4123078F093
:1036C000CC2069F08091CF0482FF09C082E00E9483
:1036D000120B8091BD018770AA24A3948111A12CA3
:1036E000902E92942FE09222FBE0F91508F4A7C0E7
:1036F000E92DF0E0E05CF04D0C94602E0B355CE7BA
:10370000150749F10C358CE71807D9F00A351C4725
:1037100009F0B1CF81E01CC00E944B10AFEFB4E3C1
:10372000ECE0A150B040E040E1F700C000000E9492
:10373000F80B6FEF7FEF90E080E00E94162F0E9461
:1037400098148091CF0482FB882780F991E0892723
:103750000E94D30D90CF80E0FBCF85810081118145
:10376000882369F0C8010E94DA0CD82E682FC8019E
:103770000E94AB0AB8018D2D0E94BD0C82CFC801FA
:103780000E94770AD82EF6CF202F2F70D22E802FAE
:10379000807F19F0D29490EFD922BB20A9F0DD20D0
:1037A00059F080E2810F883010F0111107C08D2D83
:1037B0000E94FF090E949A0F812F3FC0809134051B
:1037C000D82AD0923405F6CF812F0E94CD14DD2067
:1037D000B1F180E2810F883010F0111104C08D2DFD
:1037E0000E94F80903C08D2D0E94F1090E949A0FD2
:1037F00026C0302F3F70D32E802F807F803219F06B
:10380000D29480EFD822112351F0113009F499C0DD
:10381000BB2009F4A5C0CC2009F449C0CDCF8091CC
:10382000CF0482FD40C0BB20C1F1DD2029F08D2DE9
:103830000E94FF090E949A0F80E00E947515A92D31
:10384000A850BB0B149710F40E942A06812F902FCA
:103850000E944F0B8111B2C11092A1011092A001E0
:10386000AA20B1F08091BD0180FD12C0D70115964C
:103870001C928695869586950E94290BC7010E9409
:1038800084178091BD018695869586950E94050BCB
:1038900060E0C7010E944F0DA9CC80E00E94CD14CA
:1038A000DD2069F29CCFBB2091F1C11004C08D2DA9
:1038B0000E94C614C4CF41E0C41211C08090E80138
:1038C0008D2D8821D81609F4BACF0E9472059093E5
:1038D000E7018093E601D828D092E801B0CF80912B
:1038E000DB03823008F4ABCFC812A9CF8D2D0E9424
:1038F000C6148D2D0E94DC098091BA019D2D98235C
:10390000D91609F49CCFD82AD092BA0198CFC11009
:103910000AC08D2D0E94BF148D2D0E94DC098D2DB3
:103920000E94630A8CCF8091DB03823008F487CF3A
:1039300051E0C51284CF80919E038D2109F47FCF81
:10394000E8CF8091E103BB2021F08C1508F477CFFC
:10395000AECFC81608F073CF8D2D0E94BF146FCF65
:10396000CC20D1F38091DF039091E003193321F053
:103970008091DD039091DE030E941C0C812F0E9438
:10398000CD145DCF802F86958695837069F0813048
:1039900009F055CF812F902F9370B11002C080E0B5
:1039A00090E00E94E0054BCF812F902F9370B110D3
:1039B00002C080E090E00E94050641CF802F837016
:1039C00091F5B1103CCF412F429546954770440F79
:1039D000440F812F8F70042E01C0880F0A94EAF7DC
:1039E000212F207114FF07C02FE030E001C0220F0B
:1039F0004A95EAF72095302F369536953370323058
:103A000069F050F44091F601313029F0822B842383
:103A10000E944C0B14CF842B822BFACF282B809141
:103A2000F6018227F5CF8695BB2011F0802F81709B
:103A3000882309F404CF412F429546954770440FDF
:103A4000440F812F8F70042E01C0880F0A94EAF76B
:103A5000212F207114FF07C02FE030E001C0220F9A
:103A60004A95EAF72095302F3695369533703230E7
:103A700069F050F44091F701313029F0822B842312
:103A80000E94E20ADCCE842B822BFACF282B809175
:103A9000F7018227F5CF802F8F70D82EBB2021F021
:103AA0000E94290B812F04CF812F0E94BF148D2DDE
:103AB0000E94050BC4CE123F89F160F4103FB9F0AB
:103AC000113F81F0BB2009F474C0C11075CE802F66
:103AD0008F7128C0133F49F1143FA1F78091CF04A3
:103AE00082FD2FC0802F8F71BB2011F31BC08091EE
:103AF000E103BB2079F0C81608F0A1CE202F2F716A
:103B000081E090E001C0880F2A95EAF79091F701D3
:103B10008927B6CF8C1508F492CEF0CF802F8F7105
:103B2000B110C6CF0E94290B8ACE80E0BB2009F4D9
:103B3000A7CF81E0902F9F7101C0880F9A95EAF777
:103B40009FCF8091DB03823008F1BB20A9F09091D8
:103B5000BD019770943041F40E94050A802F8F7147
:103B60000E94050BA12C6BCE63E0C816D8F7802FFE
:103B70008F710E94350BF6CFC81620F00E94050AFF
:103B800064E0F5CF81E00E94120BECCFBB2031F056
:103B900063E0802F8F710E94350B51CE81E00E942F
:103BA000120B91E09C1508F04ACE82E00E94120BA5
:103BB00046CEC110D7CE802F8F717ACFBB2019F09F
:103BC000C1104ACE4DCEC11047CE20E0F701408152
:103BD000518162817381848195810E942A0D809137
:103BE000DC0383FF39CE8091A0019091A10102975F
:103BF00009F032CE812F0E94F0152ECE552021F0F3
:103C0000FC01808585FFDFCBC80197558F3F91056B
:103C100011F008F06EC0C801887F9927892B09F040
:103C2000D5CAF801FF2754E0EE0FFF1F5A95E1F7C0
:103C30009F01235D3D4F6901D70115968C91EE5C84
:103C4000FD4F908180FB90F99083882309F4C2CBCB
:103C50000E9472059093020280930102F601828114
:103C60008F5F82838091340590919E03892B83839B
:103C70008091E80184834681578166857785C601F6
:103C80000E943706D60115968C9181FFA0CB90E05B
:103C900080E09093C6048093C7042BC080919E015E
:103CA00090919F010817190781F410929F011092BB
:103CB0009E011092BB041092BC041092BD0410929D
:103CC000BE041092C3041092C2048091C404909167
:103CD000C504009709F498CFE8E06E16710408F067
:103CE00067CB642D0E948E06811103C081E00E9483
:103CF000F7148091DA0380FFC4CB0E9472056C0137
:103D0000F7018581882309F491CB80910D0182FF11
:103D100008C023E032E040E0B60190E080E00E947D
:103D2000D5160431FCE71F0709F47CCB05312CE7DD
:103D3000120709F46CCB03313CE7130729F4809197
:103D40000D01816080930D01C8019052811590434F
:103D500008F07ACB1092E6031092E503D70115968E
:103D60008C919801205E32452032310508F071CCEB
:103D7000811181CC0F7181E090E0FC0102C0EE0F57
:103D8000FF1F0A95E2F78F016E2F83E090E00E94FB
:103D9000F82E802F0E944C0B19CA8114910409F04F
:103DA000BBCA512C912C812C80E00E94F714D09238
:103DB000C504C092C40481E08093C1048FE08A9D51
:103DC000F0018B9DF00D1124EA5DFC4F85818093FD
:103DD000BF0451100EC08114910459F0808191816B
:103DE0009C0124503109213A310508F0BECA0E94D5
:103DF00081058FE08A9DF0018B9DF00D1124EA5D15
:103E0000FC4FC680D780C6019A9581159F4110F45A
:103E100020EED22299249394C60101978F339E47B6
:103E200008F0912C8FE08A9DD0018B9DB00D11245C
:103E3000AA5DBC4F1996ED91FC911A97309731F01D
:103E40001B966D917C9181E0099598229920B1F0A3
:103E50008FE08A9DF0018B9DF00D1124EA5DFC4FEF
:103E6000868197810E946A0B8093C004C60148E056
:103E70006416710408F07CCA0E943D060E949A0FE5
:103E80007ECAB0E0A0E0E7E4FFE10C94782E8091D8
:103E9000B701807F09F054C08091B601882309F4EE
:103EA0004FC0E091330589E0D82E8091EA048E1747
:103EB00009F446C00E2F10E0ED9DF0011124E551EC
:103EC000FB4F8481882309F440C0D09EE001D19E3D
:103ED000D00D1124FE01E551FB4F91818091B2017B
:103EE000981333C090818091B10198132EC08581C1
:103EF00081112BC0E280F3808091B3019091B401D5
:103F0000E81AF90A60E081EB91E00E944F0D61EB45
:103F100071E00E94B50DE816F906B8F48091B7017A
:103F20008F7080618093B701CF50DB4F88818F7095
:103F30008061888381EB91E00E9484170E946D0A62
:103F4000CDB7DEB7E7E00C94942EF8013196E77018
:103F5000ACCFA8E1B0E0EFEAFFE10C94702E8C0149
:103F600086E0F801DE01539601900D928A95E1F703
:103F7000D80114967C9014971596EC9081EBA82E9E
:103F800081E0B82E8091B50181112AC0711003C063
:103F9000FF24F3941CC0EE20F9F0C8010E94160D16
:103FA000F82E8823C9F089E0F801A1EBB1E0019077
:103FB0000D928A95E1F78091B501813031F48091BD
:103FC000B1019091B2010E94090D0E94411F8F2DF5
:103FD0006896EFE00C948C2EC8010E948417D8CF0D
:103FE000F80150806180C280D38060E081EB91E075
:103FF0000E944F0DF090B6018091B3019091B401F1
:104000004601881A990A60E081EB91E0FF2009F4EB
:1040100028C10E944F0D61EB71E00E94B50D88161A
:10402000990608F0D1C0772009F4B2CF8091B7018A
:10403000382F307F2091B201D80111969C911197B1
:10404000311171C029131FC02091B1019C91291316
:104050001AC04091B8015091B90117962D913C9129
:104060004217530781F4E11054C08F708061809330
:10407000B70181EB91E00E9484178091B701F801AC
:104080008683F12CA4CFE11044C0662D852D0E94BB
:10409000DD03E82E882381F08091DC0380FFF1CFDF
:1040A00081EB91E00E94841789E0E1EBF1E0DF0110
:1040B0001D928A95E9F7E5CF5B8A6C8A8B899C898A
:1040C0000E94090D292F22952F70243058F49F70DB
:1040D000223088F0992399F0F8019681907F79F445
:1040E000FE2C75CF2A5F2F70223068F0C8010E9425
:1040F0008417EF2CF5CF992311F0882389F3805E84
:10410000883070F3F3CF803F58F3815F833070F7CE
:10411000E7CF8091B70181608093B7018091DC0384
:1041200081FDAFCFBDCF291320C02091B1019C915B
:1041300029131BC04091B8015091B90117962D91D8
:104140003C9118974217530781F4E1100EC0169660
:104150008C93C8010E94841789E0F801A1EBB1E0BB
:1041600001900D928A95E1F732CFC8010E94160D99
:10417000882309F431CFEE2009F42ECF8091B701C6
:104180008032B8F02091B1013091B2013B872A878B
:10419000DD86CC869091B5019E871F86888B8091A5
:1041A000B8019091B9019A8B898BCE010A960E9431
:1041B000841789E0F801A1EBB1E001900D928A9596
:1041C000E1F70E94411FE4CE8091B701982F907FC4
:1041D00009F466CF772009F4DBCE2091B201F80113
:1041E000918129131AC02091B1019081291315C022
:1041F0004091B8015091B90127813085421753078A
:1042000061F4E1100AC08683C8010E94841789E026
:10421000D5011D928A95E9F7DACEC8010E94160DE4
:10422000882309F4D9CEEE2009F4D6CE8091B701C7
:10423000803208F4BECF2091B1013091B2013A83AF
:104240002983DC82CB829091B5019D831E828F836E
:104250008091B8019091B90199878887CE01019624
:10426000A6CF0E944F0D61EB71E00E94B50D88163C
:10427000990608F055C0772009F48ACEFE2CEE206E
:1042800009F4AACE9091B201F801818198133AC045
:104290009091B1018081981335C02091B80130917F
:1042A000B901878190852817390761F5A090B3017E
:1042B000B090B40160E081EB91E00E944F0D8091DD
:1042C000DC0382FD49CFCA18DB088091D7039091A7
:1042D000D803C816D90608F03FCF8091B70180FDFA
:1042E0003BCF982F907F09F437CFD80116968C9347
:1042F0001697903F09F42DCF982F907F905F8F7085
:10430000892B25CFC8010E94160D811152CF8091B3
:10431000B70181608093B701C8010E94841757CE0E
:1043200089E0F50111928A95E9F751CEA2E1B0E05A
:10433000ECE9F1E20C947B2E0A871B872C873D87E2
:104340004E875F87688B798B8A8BCE010A960E9495
:10435000A91F81110CC089E0FE013A96DE01119679
:1043600001900D928A95E1F78E8581110BC019E0BD
:10437000809133059091EA04891331C06296E4E09C
:104380000C94972E2091EA0430E0C90101968770C1
:104390009927409133054817190699F099E0929FA3
:1043A000D001939FB00D1124A551BB4FFE01319652
:1043B00001900D929A95E1F78093EA040E946D0AAC
:1043C000D6CF0E944B101092EA041092330589E078
:1043D000E1EBF1E0DF011D928A95E9F7C8CF819FFB
:1043E000C001112485519B4F0E94A91F882331F2DF
:1043F0008091330590E0019687709927809333056B
:10440000B7CFEF92FF920F931F93CF93DF938091DB
:104410003E04882361F0E091E9038DE0F82E80915D
:104420003E04E81748F010923E041092E903CDB71D
:10443000DEB7E6E00C94952EEE24E394EE0EE092C7
:10444000E903CE2FD0E0EF9DF0011124E15CFB4F9A
:1044500084818823E9F087819085892B21F48185E7
:104460009285019659F40081118122813381448122
:1044700055816681778180850E949621FC9EF0019E
:10448000FD9EF00D1124E15CFB4F14821092340567
:10449000EE2DC5CF1092B2041092B10410920E010D
:1044A0008091B0048093AF040E94DC060E94012238
:1044B0000895B0E0A0E0EFE5F2E20C946E2EC0911A
:1044C000AF0497E0992E01E010E02DE0322E34E0A9
:1044D000432E552453948091B0048C1309C00E943C
:1044E00001220E94DC06CDB7DEB7E1E10C948A2EF2
:1044F000D0E0FE01EE0FFF1FE955FB4F8081918157
:10450000989ED001999EB00D1124A651BC4F1496CF
:104510002C911497211159C060903E04EFE3F4E010
:1045200030E020E0812C5D01261508F04CC0E384CA
:10453000F484D501CD90DC906FEF7FEF712C472D87
:1045400050E0DA01AA0FBB1FAC0DBD1D0D90BC9150
:10455000A02D109731F0EA16FB0609F4BA01739406
:10456000EECF6F3F7607A9F1D80102C0AA0FBB1F9B
:104570006A95E2F78A2AB801072C02C0660F771FF6
:104580000A94E2F7AB01415051098416150601F572
:10459000329EF001339EF00D1124E15CFB4F989E9A
:1045A000D001999EB00D1124A651BC4F12962D91A9
:1045B0003C9113973087278344821082118292871F
:1045C000818715965C920E94AE062196C37083CFB8
:1045D00014822F5F3F4F3D96A7CFAEE1B0E0E3EFEF
:1045E000F2E20C946D2E4B8B5C8B6D8B7E8B8F8BE4
:1045F000988F882349F08091A0019091A1010196A4
:104600009093A1018093A001888D811110923405AF
:10461000188A198A1A8A86E0FE017396DE011A96B4
:1046200001900D928A95E1F78091CF0482FF1EC020
:104630008091C1039091C203892BC1F00E94720541
:104640002091BB013091BC01821B930B2091C103CF
:104650003091C2038217930720F08091BD0182FF41
:10466000EEC10E940C0A81110E94BD098E8588232B
:10467000B1F061E0CE010A960E944F0D61E0CE01DB
:104680000A960E944F0D6C018F8520E5C2162CE71B
:10469000D20689F4882329F181E080930E010A85EE
:1046A0001B852C853D854E855F85688979898A893A
:1046B0000E949621CFC031E5C3163CE7D30629F40A
:1046C000882379F00E944A22EACF42E5C4164CE7DB
:1046D000D40639F4882329F080910E018111F2CF9C
:1046E000DBCF9AEEE92E93E0F92E412CB12CA12CD0
:1046F00066246394712CBE016F5F7F4F7A8F698F40
:1047000022242394F7014081518188248A94982C93
:1047100020E0822F90E0FC01EE0FFF1FE40FF51F59
:10472000608171816115710531F0C616D70609F4F3
:104730004C012F5FEECF80E0FFEF8F169F0609F44C
:104740004AC0F701448130900E01832D411180E071
:10475000F82FF1703F2EF701558086819F859923B0
:1047600009F4F9C0332009F4F6C00091D503109183
:10477000D603511013C0A301082C01C0440F0A94A2
:10478000EAF7842B86838091E7039091E8038017F2
:10479000910720F41093E8030093E703C30102C0DC
:1047A000880F991F2A95E2F70197F70126812817AC
:1047B000190609F06EC08091B1049091B20400977F
:1047C00009F44CC00E9457050817190708F046C0A5
:1047D000F701248281E0482AFFEFAF1ABF0A27E0E1
:1047E000E20EF11C3CE0A316B10409F08BCF8F85DB
:1047F000882309F410C1442009F40DC10E947205F8
:104800009093B2048093B10480913E04883010F5F7
:1048100091E0980F90933E0499E0FE013A96DE01F4
:10482000119601900D929A95E1F74DE0849FC00199
:104830001124815C9B4F29E0FE013196DC0101903F
:104840000D922A95E1F72FEF3FEFFC013287218788
:10485000D486C3866E96E2E10C94892E8091AF04D3
:104860005091B004982FF0E0E0E0851314C09093CD
:10487000AF04EE16FF0669F090E0FC01EE0FFF1F9B
:10488000E955FB4FB182A0820196837099278093EE
:10489000B004832DA0CF882E912CF401EE0FFF1FC2
:1048A000E955FB4F20813181F7E0F29FD001F39F62
:1048B000B00D1124A651BC4F2D913C9111973E8F04
:1048C0002D8F40E020E030E0E32FF0E0EE0FFF1FFF
:1048D0006D8D7E8DE60FF71F008111810115110589
:1048E000E1F0F7010190F081E02DFC8FEB8F20E0EB
:1048F00005C00617170709F4432D2F5FE22FF0E0DC
:10490000EE0FFF1F6B8D7C8DE60FF71F60817181AD
:104910006115710571F73F5FD7CF4423C9F0F701E7
:10492000231708F0FD012482EE16FF0621F4909370
:10493000AF04342EAECF891305C0AE17BF0711F4F4
:104940009F5F937094012F5F3F4F822F83708DCFB5
:10495000F0E0E0E0F7CF90E0511020C0B30102C0DA
:10496000660F771F2A95E2F79B01215031098217C4
:10497000930731F4442309F44CC0C5010E94AE06EC
:10498000C301082C01C0880F0A94EAF7982F90956C
:10499000F701868189238683352C7BCFAC01082CD7
:1049A00002C0559547950A94E2F7BA0161707727DE
:1049B0009C012150310982239323892B31F5672BE8
:1049C00021F1F70182819381892BE1F0E98DFA8D44
:1049D00027E011922A95E9F70E947205282F8B8310
:1049E0009C8334E03D83F70182819381782F88870F
:1049F000998709811A813C8144E05E816F81892F0A
:104A00000E949621F7011582BBCFF42FF1705F2E23
:104A1000B7CF532CB5CF9091AF048091B0049817C5
:104A200029F00E945922411015CF39CE0E9401224F
:104A30001092B2041092B1040E94DC06F4CF82E01E
:104A40000E94120B0ECEA6E0B0E0E9E2F5E20C9473
:104A50007D2E90931A0280931902811520E292070D
:104A600030F40E945D152696E2E00C94992E80EFBA
:104A700089838A830E9472058160682F9C838B835F
:104A800049815A817C8181E090E00E94ED22EBCF48
:104A90000F931F93CF93DF938C01EB0163E272E0DE
:104AA0008C2F0E94A10D892BA1F48091DD039091A0
:104AB000DE030E941C0CDD27C55EDD4F8881F801F6
:104AC000128218828330F1F048F4813059F082303C
:104AD00081F0DF91CF911F910F9108958430B9F04B
:104AE0008530B9F78091230290912402009789F3D1
:104AF00006C08091250290912602009799F30E94AA
:104B00002325E7CF8091270290912802F6CF80914C
:104B1000290290912A02009791F720912302309167
:104B20002402809125029091260221153105F1F28F
:104B3000009729F7C901E3CFA6E0B0E0E2EAF5E289
:104B40000C947D2E90931A0280931902811520E215
:104B5000920730F40E94AD162696E2E00C94992E4E
:104B600080EF89838A830E9472058160682F9C830D
:104B70008B8349815A817C8181E091E00E94ED2202
:104B8000EBCFCF93DF93EC010E949C258091DD0356
:104B90009091DE030E941C0CCE010E942325DF9120
:104BA000CF9108950F931F93CF93DF938C01862F9E
:104BB00063E272E00E94A10D892BB1F4C09123023F
:104BC000D0912402209781F0F8018281833051F442
:104BD000CE010E94C125CE010E94C125CE010E94B6
:104BE000C12502C08430D0F7DF91CF911F910F9182
:104BF00008950F931F93CF93DF938C01EB0163E232
:104C000072E08C2F0E94A10D892B09F05CC0FE017F
:104C1000FF27D80112968C911297E55EFD4F8130E7
:104C2000B9F415969C9192FF02C080830AC090FF50
:104C3000FCCF82E08083809125029091260200972C
:104C4000B9F480912302909124020097E1F110C001
:104C50008230B9F515968C9182FD28C080FD0BC07D
:104C600083E080838091270290912802009701F1D0
:104C70000E949C2528C084E0808380912902909125
:104C80002A020097A9F780912302909124020097AD
:104C9000F9F00E94C125809125029091260200978B
:104CA00039F78091230290912402E2CF85E080833E
:104CB0008091230290912402009729F00E94C1253F
:104CC000F0CF86E08083DF91CF911F910F910895FF
:104CD0008091250290912602B8CFA6E0B0E0E3E7EC
:104CE000F6E20C947B2E0E9472058C018091E90102
:104CF0009091EA018017910781F019821A820E942F
:104D00007205682F49815A81792F80E090E00E94D6
:104D1000ED221093EA010093E9012696E4E00C9459
:104D2000972E1F920F920FB60F9211242F933F933D
:104D30004F935F936F937F938F939F93AF93BF93A3
:104D4000CF93DF93EF93FF93D091E900DF708091D1
:104D5000EC00C82FC17080FDC0E81092E90080917E
:104D6000F000877F8093F00078940E946D1010927D
:104D7000E9008091F00088608093F000CD2BCF7027
:104D8000C093E900FF91EF91DF91CF91BF91AF9177
:104D90009F918F917F916F915F914F913F912F9153
:104DA0000F900FBE0F901F9018951F920F920FB685
:104DB0000F9211242F933F934F935F936F937F93A1
:104DC0008F939F93AF93BF93EF93FF938091E100F5
:104DD00082FF09C08091E20082FF05C08091E1005E
:104DE0008B7F8093E1008091DA0080FF24C0809166
:104DF000D80080FF20C08091DA008E7F8093DA0097
:104E00008091D90080FFAAC080E189BD82E189BD7F
:104E100009B400FEFDCF81E08093E0048091D504C9
:104E2000811109C00E94FC030E949D048091E20050
:104E300084608093E2008091E10080FF1AC080913D
:104E4000E20080FF16C08091E2008E7F8093E20036
:104E50008091E20080618093E2008091D8008062BE
:104E60008093D80019BC85E08093E00483E08093B0
:104E700014018091E10084FF30C08091E20084FF42
:104E80002CC080E189BD82E189BD99B5892F8170EF
:104E900090FFFBCF9091D8009F7D9093D800909188
:104EA000E1009F7E9093E1009091E2009F7E9093BD
:104EB000E2009091E20091609093E2009091E10411
:104EC000992309F451C094E09093E0049091E00498
:104ED000943009F482E0809314018091E10083FF13
:104EE0002CC08091E20083FF28C08091E100877F81
:104EF0008093E10082E08093E0041092E1048091CD
:104F0000E1008E7F8093E1008091E2008E7F8093AC
:104F1000E2008091E20080618093E20042E060E084
:104F200080E00E946B048091F00088608093F00024
:104F300081E08093140180931301FF91EF91BF9161
:104F4000AF919F918F917F916F915F914F913F9121
:104F50002F910F900FBE0F901F90189519BC1092B3
:104F6000E0041092D50467CF9091E30097FD02C052
:104F7000982FAACF93E0A8CF78941F921FB61F92C4
:104F800011248F939F93AF93BF938091D1049091FD
:104F9000D204A091D304B091D4040196A11DB11DF7
:104FA0008093D1049093D204A093D304B093D404FB
:104FB000BF91AF919F918F911F901FBE1F90189529
:104FC0001F921FB61F9211248F939F93AF93BF938D
:104FD0008091D004811113C08091D1049091D204AA
:104FE000A091D304B091D4044196A11DB11D80932A
:104FF000D1049093D204A093D304B093D404BF916E
:10500000AF919F918F911F901FBE1F901895CDB7A4
:10501000DEB7ED970FB6F894DEBF0FBECDBF85B7F4
:10502000806885BF85B7806885BF84B7877F84BF68
:105030000FB6F894A8958091600088618093600015
:10504000109260000FBE80E890E00FB6F894809355
:105050006100909361000FBE81E08093140185E9A7
:1050600097E090937501809374010E9470070E94ED
:105070009F0E0E941B0E0E947B0D0E94FC030E944B
:105080009D048091E20084608093E2007894809196
:10509000E0048823A1F01091E9001F709091EC00CA
:1050A000892F817090FD80E8182B1092E900809183
:1050B000E80083FD0E946D101F701093E90082E0EC
:1050C00084BD93E095BD9AEF97BD80936E000E94DA
:1050D000750C811102C00E940D1485E90E9497078A
:1050E00085E30E94970784E30E94970787E90E945F
:1050F00097070AE511E0B4E6EB2EB1E0FB2ED801EC
:105100008D918D018F3F11F00E949707E016F106F7
:10511000B1F788E0EFE0F2E0DF01282F1D922A9539
:10512000E9F7EEEEF1E0DF011D928A95E9F790E0F4
:1051300080E00E94E22E853E9E4F21F40E94750C75
:10514000811163C065EE7EEF90E080E00E94162F33
:1051500060E082E090E00E94F82E81E08093F6010A
:1051600061E083E090E00E94F82E60E074E184E06A
:1051700090E00E94162F60E086E090E00E94F82EFA
:1051800060E087E090E00E94F82E40E050E0BA0135
:1051900088E090E00E940A2F60E083E290E00E94A5
:1051A000F82E60E08CE090E00E94F82E60E08DE048
:1051B00090E00E94F82E19821A821B821C821D82A6
:1051C0001E821F82188648E050E067E170E0CE0141
:1051D00001960E94E82E40E050E0BA018FE190E095
:1051E0000E940A2F80E00E94260C0E940D1440E0CD
:1051F00050E0BA018FE090E00E940A2F40E050E0BA
:10520000BA0183E190E00E940A2F82E090E00E94C0
:10521000DA2E8093F80184E090E00E94E22E9093D1
:10522000CF048093CE040E94E30EEFEFF6E721E077
:10523000E150F0402040E1F700C000000E94E30E82
:1052400080910F0280FF08C06FEF7FEF90E080E059
:105250000E94162F0E94F80B83E090E00E94DA2E45
:105260000E944C0B81E091E09093CB048093CA04A0
:10527000F0E17F2EA0E12A2E4E013BE2830E911C2D
:10528000CE0101967C012E0193E0490E511C8091C4
:10529000E00410E402E1853009F492C00E94E30EBC
:1052A000E9EFAE2EE1E0BE2E8FE092E09BAF8AAF39
:1052B000DC01F501219131918D919D9142E0E13028
:1052C000F40709F487C028173907A1F3612CAAADA8
:1052D000BBAD0D911D91BBAFAAAFF501819191912D
:1052E0005F018017910781F1312CCC24C394D12C1C
:1052F0009C01202731273DAF2CAF8CAD9DAD8C217B
:105300009D21892BB9F03CAA6DAA0E9472059FAB22
:105310008EAB31E038AF91E098012C213D21232B59
:1053200009F490E099AF4CA95DA96EA97FA988AD59
:105330000E94ED223394CC0CDD1C4AE03412DDCF08
:10534000F501329711830083639484E06812BFCF24
:105350000E94660545C08091E004843019F11092E6
:10536000D004A8E1B0E00FB6F894A895A09360002F
:105370000FBE1093600083B7817F846083BF83B7C3
:10538000816083BF7894889583B78E7F83BF0FB683
:10539000F894A895809160008861809360001092D5
:1053A00060000FBE0E94E30EEFE0F2E08191919168
:1053B000892B09F033C427E132E02E173F07B1F7FC
:1053C0008091E004853009F4C6CF0E944B100E9402
:1053D0002A0664CF2817390709F078CF0E946D2676
:1053E0008091C2049091C304892B09F43EC040917E
:1053F000B7045091B8046091B9047091BA042FB702
:10540000F8948091D1049091D204A091D304B091EA
:10541000D4042FBF841B950BA60BB70B4091B3048C
:105420005091B4046091B5047091B6048417950747
:10543000A607B707D0F08091C2049091C3040E94E0
:10544000AD161092C3041092C2041092B7041092C9
:10545000B8041092B9041092BA041092B3041092D6
:10546000B4041092B5041092B6040091C6041091D1
:10547000C7040115110551F18091010290910202BA
:105480000E9457056C0189E0D4011D928A95E9F7C5
:10549000B401C8010E94B50D8C159D05B8F420918A
:1054A000C6043091C704C9019927287F3327232BCD
:1054B00009F095C054E0880F991F5A95E1F7835D74
:1054C0009D4FFC01258122FF0E94051080910E0155
:1054D000882301F18091B1049091B2040097D1F03A
:1054E0000E9457052091E7033091E80328173907F8
:1054F00088F49091AF048091B004981709F472C0B9
:105500000E9459221092E8031092E7031092B2040D
:105510001092B1048091DA0380FF1EC080910D01CA
:1055200082FF1AC00E9472052091E3033091E403C8
:10553000AC01421B530B20910B0130910C0142171F
:10554000530750F023E032E041E0BC018091E503D5
:105550009091E6030E94D5160E942A0690910C02B3
:10556000891721F080930C020E9466058091E00467
:10557000843009F08CCE83E08093E9008091E800CC
:1055800082FF85CE8091E80090E085FF05C00E94F3
:105590001B04882381F191E08091E8008B77809350
:1055A000E800992309F473CE0091170210911802B4
:1055B000898101151105E1F18E3F09F07AC08A81D8
:1055C000833020F08550833008F073C0EA81EE30DC
:1055D00008F06FC0F0E0E45BF04D0C94602E90E0BA
:1055E00080E06FCF0E9401221092B2041092B104A9
:1055F0000E94DC068FCF00E210E09E012F5F3F4F3C
:1056000069018091E80085FD0AC08091E8008B77F0
:105610008093E8000E941B04882399F3BCCF8091FB
:10562000F100D6018D936D010150110951F7B3CFEF
:105630008D3009F498C0A8F4843009F47BC040F49C
:10564000823039F108F067C08130F9F08FEF10C374
:10565000863009F485C008F478C08C30B9F72A8206
:1056600028C0813109F4D5C040F48F3009F4A6C0B8
:1056700008F47CC00E943F0C1CC0833109F4F6C0C2
:1056800008F4CAC08E3F11F7A1CF1A8289E08B833C
:1056900010C08A81823009F40AC3833089F08130D6
:1056A000A9F60E9466050E94662E6B837C838D831B
:1056B0009E8340E250E0B70182E00E949B0BE7CD61
:1056C00080910F0190911001892B99F380910F0225
:1056D000909110029827892798279C838B8380912B
:1056E0001102909112029827892798279E838D8313
:1056F0008091130290911402982789279827988700
:105700008F838091150290911602982789279827F8
:105710009A878987CECF8A81823009F097CF6B81B3
:105720007C818D819E810E94662E87E290E00E949E
:10573000F82EBFCF4C816B818A810E948E0C9827F6
:10574000892798279E838D83B4CF2D813E81322770
:10575000232732274C816B818A810E944F0CA9CF6D
:105760000E947813A6CF1A828CEB91CF0C8110E0A7
:105770000D31110508F09DCFCA80DB80DC24CD24DB
:10578000DC2457010E0D1F1DC6018C5B9C4F0A15B2
:105790001B0509F48ECFBCEBCB16D10458F40E9444
:1057A000DA2EF5018483BFEFCB1ADB0AEFEFAE1AD6
:1057B000BE0AEACFD50114961C92F5CF80910F0155
:1057C00090911001892B09F474CFCC80D12CFDE18C
:1057D000CF16D10408F06DCF0A811B811027012755
:1057E00010275701C00ED11EC8018C5B9C4F0C15B1
:1057F0001D0509F45ECF0C3B110528F4D501149664
:105800006C910E94F82EBFEFAB1ABB0A0F5F1F4FBF
:10581000EBCF86E08A834DCF0C8110E00D3111056E
:1058200008F047CFAA80BB80BA24AB24BA24FE017B
:1058300031966F010E0F1F1FC5018896C016D10645
:1058400009F437CFF0EEAF16F1E0BF0660F40E9426
:10585000DA2ED60114968C93FFEFAF1ABF0A2FEF02
:10586000C21AD20AE9CFF6011482F6CFCC80D12C2D
:105870003DE1C316D10408F01CCF0A811B8110271B
:1058800001271027003E41E0140708F012CF80EEF8
:1058900091E0801B910B8C159D0508F40ACFCE0179
:1058A00001965C01C00ED11EC8018896C016D106B3
:1058B00009F4FFCE003EA1E01A0720F4F50164814F
:1058C0000E94F82EFFEFAF1ABF0A0F5F1F4FECCFF9
:1058D00088E0E5E1F1E0DE01919601900D928A9574
:1058E000E1F780E2D7011D928A95E9F786E0898386
:1058F00088E0FE01B196DE01159601900D928A9521
:10590000E1F7D7CE88E3898382E08A831B821C82F9
:10591000D0CE8C81682F70E0762F66278B81860F22
:10592000972F911D092E000CAA0BBB0B45E0880F89
:10593000991FAA1FBB1F4A95D1F7AC01BD01405E5C
:105940005F4F6F4F7F4F481759076A077B0708F46F
:10595000B0CE8833E2E09E07A105B10508F0A9CEDC
:105960004933F2E05F076105710520F048E352E03A
:1059700060E070E0481B590BBC0161587E4FC701C5
:105980000E94A42E96CE4EE150E06FEF70E0C2016F
:105990000E94C32E80910F0189830A838ACE81E001
:1059A00090E0909318028093170282E390E0909326
:1059B0000E0280930D020E9472057BCE80910F0132
:1059C00089830A8380910D0262CE0B811C8140E2A3
:1059D00050E06FEF70E0C7010E94C32E27EB33E069
:1059E00090E080E0AC014E5F5F4F4132510508F01E
:1059F00060CEF901659174910617170730F48E0D8A
:105A00009F1DDC016D937C93CA01245F3F4FB4E07E
:105A100027343B0739F74DCE4B815C8187EB93E010
:105A200027E434E0FC01659174914617570709F4A7
:105A300010C10C9628173907A9F708CE8B819C81D5
:105A400007EB13E0F801259134918217930709F4CD
:105A500011C1045F1F4FF4E007341F0799F7CC24EE
:105A6000CA94DC2C22C10E94421323CEEB81E73082
:105A700008F01FCEF0E0E65AF04D0C94602E8EE157
:105A8000D2011D928A95E9F788E089839CE09A8388
:105A9000FECD8C819AE0D92E8E010F5D1F4FF8014B
:105AA0002D2D11922A95E9F7B8010E94A10D898345
:105AB000F801DE01129601900D92DA94E1F7F9CD2A
:105AC0001C818AE0FE013596DE01919601900D92CF
:105AD0008A95E1F789A19AA10E9488079AA389A3D0
